00COTAHIST.2024BOVESPA 20240724                                                                                                                                                                                                                      
012024072402NGRD3       010NEOGRID     ON      NM   R$  000000000011200000000001140000000000107000000000010900000000001100000000000109000000000011000821000000000000839600000000000091925600000000000000009999123100000010000000000000BRNGRDACNOR3104
012024072402NINJ3       010GETNINJAS   ON      NM   R$  000000000047300000000004730000000000460000000000046500000000004600000000000460000000000046800019000000000000003500000000000001628700000000000000009999123100000010000000000000BRNINJACNOR5101
012024072402NTCO3       010GRUPO NATURAON      NM   R$  000000000149500000000014970000000001481000000000148600000000014860000000001485000000000148712825000000000005131000000000007626718400000000000000009999123100000010000000000000BRNTCOACNOR5106
012024072402ALPK3       010ESTAPAR     ON      NM   R$  000000000035100000000003580000000000348000000000035400000000003490000000000348000000000035600222000000000000085700000000000030387700000000000000009999123100000010000000000000BRALPKACNOR9101
012024072402GRND3       010GRENDENE    ON      NM   R$  000000000059300000000005950000000000588000000000059100000000005900000000000590000000000059301197000000000000396500000000000234663600000000000000009999123100000010000000000000BRGRNDACNOR3174
012024072402GSHP3       010GENERALSHOPPON           R$  000000000105000000000010500000000001050000000000105000000000010500000000001050000000000149200002000000000000000400000000000000420000000000000000009999123100000010000000000000BRGSHPACNOR7102
012024072402GUAR3       010GUARARAPES  ON      NM   R$  000000000072000000000007200000000000701000000000070900000000007020000000000702000000000070803102000000000000963200000000000683789100000000000000009999123100000010000000000000BRGUARACNOR4173
012024072402HAGA3       010HAGA S/A    ON           R$  000000000026300000000002770000000000263000000000027400000000002760000000000266000000000027200024000000000000003600000000000000988700000000000000009999123100000010000000000000BRHAGAACNOR7103
012024072402HAGA4       010HAGA S/A    PN           R$  000000000011900000000001190000000000116000000000011700000000001170000000000116000000000011800015000000000000002100000000000000245900000000000000009999123100000010000000000000BRHAGAACNPR4103
012024072402HAPV3       010HAPVIDA     ON      NM   R$  000000000039200000000004050000000000387000000000039700000000003950000000000395000000000039622734000000000050971200000000020260046500000000000000009999123100000010000000000000BRHAPVACNOR4114
012024072402HBOR3       010HELBOR      ON      NM   R$  000000000022900000000002300000000000223000000000022500000000002250000000000225000000000022600356000000000000303600000000000068442900000000000000009999123100000010000000000000BRHBORACNOR3118
012024072402ENGI11      010ENERGISA    UNT     N2   R$  000000000455500000000045620000000004471000000000451000000000044710000000004471000000000448919138000000000004583800000000020677402800000000000000009999123100000010000000000000BRENGICDAM16135
012024072402ENGI3       010ENERGISA    ON      N2   R$  000000000140100000000014040000000001382000000000139600000000014000000000001385000000000140100028000000000000002900000000000004049500000000000000009999123100000010000000000000BRENGIACNOR0145
012024072402ENGI4       010ENERGISA    PN      N2   R$  000000000079300000000007930000000000774000000000077800000000007740000000000774000000000078900062000000000000011600000000000009033600000000000000009999123100000010000000000000BRENGIACNPR7141
012024072402ENJU3       010ENJOEI      ON      NM   R$  000000000018200000000001870000000000182000000000018400000000001820000000000182000000000018400446000000000000337400000000000062150600000000000000009999123100000010000000000000BRENJUACNOR9100
012024072402EPAR3       010EMBPAR S/A  ON           R$  000000000060000000000006000000000000592000000000059800000000005980000000000590000000000059900018000000000000005900000000000003533500000000000000009999123100000010000000000000BREPARACNOR9105
012024072402EQMA3B      010EQTLMARANHAOON      MB   R$  000000000259500000000025990000000002595000000000259700000000025990000000002530000000000264800002000000000000000200000000000000519400000000000000009999123100000010000000000000BREQMAACNOR8108
012024072402EQPA3       010EQTL PARA   ON           R$  000000000072500000000007370000000000725000000000073300000000007350000000000735000000000073900020000000000000002500000000000001833900000000000000009999123100000010000000000000BREQPAACNOR1111
012024072402EQTL3       010EQUATORIAL  ON      NM   R$  000000000326500000000032650000000003183000000000321300000000032160000000003216000000000321723266000000000008879900000000028532284700000000000000009999123100000010000000000000BREQTLACNOR0130
012024072402INEP3       010INEPAR      ON           R$  000000000019300000000002030000000000193000000000019800000000002000000000000196000000000020000169000000000000095700000000000019019300000000000000009999123100000010000000000000BRINEPACNOR1143
012024072402INEP4       010INEPAR      PN           R$  000000000019400000000002030000000000192000000000019800000000002000000000000196000000000020000100000000000000095800000000000019016500000000000000009999123100000010000000000000BRINEPACNPR8143
012024072402INTB3       010INTELBRAS   ON      NM   R$  000000000223000000000022530000000002181000000000222400000000022200000000002220000000000222704583000000000001333800000000002967341100000000000000009999123100000010000000000000BRINTBACNOR9111
012024072402VALE3       010VALE        ON      NM   R$  000000000602600000000060750000000006021000000000604700000000060600000000006060000000000606145417000000000017817300000000107753340700000000000000009999123100000010000000000000BRVALEACNOR0210
012024072402ZAMP3       010ZAMP S.A.   ON           R$  000000000033700000000003430000000000333000000000033600000000003330000000000333000000000033700982000000000000256900000000000086469200000000000000009999123100000010000000000000BRZAMPACNOR5100
012024072402AGXY3       010AGROGALAXY  ON      NM   R$  000000000013900000000001690000000000137000000000015600000000001490000000000149000000000015001374000000000001228600000000000192806200000000000000009999123100000010000000000000BRAGXYACNOR4103
012024072402ALLD3       010ALLIED      ON      NM   R$  000000000078500000000008020000000000775000000000078800000000007950000000000795000000000079900225000000000000054200000000000042752400000000000000009999123100000010000000000000BRALLDACNOR3106
012024072402ALOS3       010ALLOS       ON      NM   R$  000000000217200000000021850000000002147000000000216400000000021660000000002166000000000217111383000000000003030000000000006558435200000000000000009999123100000010000000000000BRALOSACNOR5101
012024072402ALPA3       010ALPARGATAS  ON      N1   R$  000000000086500000000008650000000000852000000000086000000000008520000000000852000000000086000023000000000000004600000000000003956500000000000000009999123100000010000000000000BRALPAACNOR0231
012024072402ALPA4       010ALPARGATAS  PN      N1   R$  000000000085300000000008530000000000827000000000084200000000008530000000000851000000000085408515000000000003299300000000002780953200000000000000009999123100000010000000000000BRALPAACNPR7232
012024072402BBDC3       010BRADESCO    ON      N1   R$  000000000114500000000011460000000001136000000000113900000000011370000000001136000000000113808867000000000003606000000000004107665400000000000000009999123100000010000000000000BRBBDCACNOR1772
012024072402BBDC4       010BRADESCO    PN      N1   R$  000000000125800000000012650000000001251000000000125600000000012550000000001255000000000125826419000000000017329000000000021773701900000000000000009999123100000010000000000000BRBBDCACNPR8772
012024072402CPFE3       010CPFL ENERGIAON      NM   R$  000000000327000000000033270000000003250000000000330400000000032980000000003297000000000330208628000000000001846000000000006100473800000000000000009999123100000010000000000000BRCPFEACNOR0137
012024072402CPLE3       010COPEL       ON      N2   R$  000000000090900000000009090000000000883000000000089200000000008940000000000892000000000089504115000000000007969900000000007114881900000000000000009999123100000010000000000000BRCPLEACNOR8149
012024072402CPLE6       010COPEL       PNB     N2   R$  000000000101900000000010210000000001003000000000100900000000010090000000001007000000000100916076000000000011476500000000011580146900000000000000009999123100000010000000000000BRCPLEACNPB9146
012024072402CRFB3       010CARREFOUR BRON      NM   R$  000000000103300000000010450000000000955000000000098800000000009590000000000958000000000096021529000000000017002800000000016813647700000000000000009999123100000010000000000000BRCRFBACNOR2116
012024072402GGPS3       010GPS         ON      NM   R$  000000000170600000000017150000000001693000000000170400000000017040000000001704000000000170505575000000000001230800000000002098108100000000000000009999123100000010000000000000BRGGPSACNOR9103
012024072402AALR3       010ALLIAR      ON      NM   R$  000000000111800000000011280000000001091000000000110700000000010910000000001091000000000111300193000000000000040300000000000044641800000000000000009999123100000010000000000000BRAALRACNOR6102
012024072402ABCB4       010ABC BRASIL  PN      N2   R$  000000000233100000000023310000000002287000000000229900000000022870000000002287000000000229502300000000000000326100000000000749939300000000000000009999123100000010000000000000BRABCBACNPR4146
012024072402ABEV3       010AMBEV S/A   ON           R$  000000000117500000000011870000000001173000000000118200000000011790000000001179000000000118036378000000000022727500000000026869770300000000000000009999123100000010000000000000BRABEVACNOR1128
012024072402COGN3       010COGNA ON    ON      NM   R$  000000000016300000000001640000000000155000000000015800000000001580000000000157000000000015816709000000000032887100000000005223828400000000000000009999123100000010000000000000BRCOGNACNOR2104
012024072402MILS3       010MILLS       ON      NM   R$  000000000113200000000011320000000001112000000000112100000000011170000000001117000000000112402991000000000000708900000000000794821100000000000000009999123100000010000000000000BRMILSACNOR2127
012024072402MLAS3       010MULTILASER  ON      NM   R$  000000000019200000000001960000000000190000000000019200000000001920000000000191000000000019203016000000000002777400000000000534582900000000000000009999123100000010000000000000BRMLASACNOR9101
012024072402MNDL3       010MUNDIAL     ON           R$  000000000155900000000015590000000001554000000000155600000000015580000000001400000000000155800004000000000000000500000000000000778400000000000000009999123100000010000000000000BRMNDLACNOR4109
012024072402MNPR3       010MINUPAR     ON           R$  000000000136400000000013800000000001303000000000134600000000013790000000001300000000000137900034000000000000005500000000000007403100000000000000009999123100000010000000000000BRMNPRACNOR5122
012024072402MOVI3       010MOVIDA      ON      NM   R$  000000000061200000000006200000000000595000000000060500000000005980000000000598000000000060409038000000000005418300000000003281831400000000000000009999123100000010000000000000BRMOVIACNOR0122
012024072402CMIG4       010CEMIG       PN      N1   R$  000000000106800000000010710000000001055000000000106400000000010640000000001063000000000106529566000000000010734300000000011421824100000000000000009999123100000010000000000000BRCMIGACNPR3243
012024072402CMIN3       010CSNMINERACAOON      N2   R$  000000000049400000000005060000000000492000000000049800000000005020000000000502000000000050310171000000000007726200000000003852562700000000000000009999123100000010000000000000BRCMINACNOR2111
012024072402COCE5       010COELCE      PNA          R$  000000000304000000000030780000000003028000000000304800000000030700000000003070000000000310000026000000000000003100000000000009449300000000000000009999123100000010000000000000BRCOCEACNPA3147
012024072402BRFS3       010BRF SA      ON      NM   R$  000000000208100000000020960000000002067000000000208000000000020800000000002075000000000208011019000000000003462100000000007201221800000000000000009999123100000010000000000000BRBRFSACNOR8122
012024072402CSED3       010CRUZEIRO EDUON      NM   R$  000000000039300000000003950000000000378000000000038200000000003820000000000382000000000038400822000000000000245700000000000094044000000000000000009999123100000010000000000000BRCSEDACNOR9104
012024072402CSMG3       010COPASA      ON      NM   R$  000000000220500000000022260000000002174000000000219900000000021740000000002173000000000217404940000000000001247000000000002742917000000000000000009999123100000010000000000000BRCSMGACNOR5174
012024072402CSNA3       010SID NACIONALON           R$  000000000120300000000012180000000001197000000000120300000000011990000000001198000000000120009611000000000003626300000000004365932200000000000000009999123100000010000000000000BRCSNAACNOR6261
012024072402ELMD3       010ELETROMIDIA ON      NM   R$  000000000181800000000018200000000001768000000000179200000000018200000000001793000000000182200353000000000000043600000000000078160600000000000000009999123100000010000000000000BRELMDACNOR3101
012024072402HBRE3       010HBR REALTY  ON      NM   R$  000000000057000000000005700000000000544000000000055400000000005520000000000552000000000055300567000000000000327100000000000181505000000000000000009999123100000010000000000000BRHBREACNOR4100
012024072402HBSA3       010HIDROVIAS   ON      NM   R$  000000000037100000000003820000000000370000000000037700000000003740000000000373000000000037507779000000000015001500000000005660451400000000000000009999123100000010000000000000BRHBSAACNOR0100
012024072402SLCE3       010SLC AGRICOLAON      NM   R$  000000000186700000000019020000000001845000000000185200000000018450000000001845000000000184905585000000000001316500000000002438306600000000000000009999123100000010000000000000BRSLCEACNOR2125
012024072402PRNR3       010PRINER      ON      NM   R$  000000000107000000000010700000000001048000000000105100000000010490000000001049000000000105101171000000000000358800000000000377355500000000000000009999123100000010000000000000BRPRNRACNOR4109
012024072402PSSA3       010PORTO SEGUROON      NM   R$  000000000301600000000030250000000002996000000000300400000000030000000000003000000000000300503019000000000000759400000000002281763500000000000000009999123100000010000000000000BRPSSAACNOR7155
012024072402SAPR11      010SANEPAR     UNT     N2   R$  000000000264000000000026680000000002637000000000264800000000026420000000002641000000000264204746000000000001037900000000002749288600000000000000009999123100000010000000000000BRSAPRCDAM13118
012024072402SAPR3       010SANEPAR     ON      N2   R$  000000000050200000000005070000000000495000000000049900000000004950000000000495000000000050001065000000000000516900000000000258265800000000000000009999123100000010000000000000BRSAPRACNOR9159
012024072402SAPR4       010SANEPAR     PN      N2   R$  000000000053500000000005400000000000533000000000053600000000005350000000000535000000000053602548000000000001192300000000000639403900000000000000009999123100000010000000000000BRSAPRACNPR6159
012024072402SBFG3       010GRUPO SBF   ON      NM   R$  000000000137400000000013740000000001336000000000135000000000013430000000001342000000000134403734000000000000898000000000001212301700000000000000009999123100000010000000000000BRSBFGACNOR1103
012024072402SBSP3       010SABESP      ON      NM   R$  000000000881700000000089200000000008626000000000882100000000089200000000008900000000000892029627000000000013428800000000118462481300000000000000009999123100000010000000000000BRSBSPACNOR5161
012024072402BPAN4       010BANCO PAN   PN      N1   R$  000000000089400000000008940000000000875000000000088200000000008800000000000879000000000088303796000000000000824500000000000727546900000000000000009999123100000010000000000000BRBPANACNPR1115
012024072402CRPG5       010CRISTAL     PNA          R$  000000000295000000000029960000000002912000000000293700000000029300000000002912000000000296200031000000000000003600000000000010576700000000000000009999123100000010000000000000BRCRPGACNPA3119
012024072402CSAN3       010COSAN       ON      NM   R$  000000000136900000000013720000000001351000000000136100000000013570000000001357000000000135914695000000000005515700000000007509271500000000000000009999123100000010000000000000BRCSANACNOR6126
012024072402ITSA4       010ITAUSA      PN      N1   R$  000000000102600000000010300000000001021000000000102500000000010250000000001025000000000102617398000000000013267500000000013603865600000000000000009999123100000010000000000000BRITSAACNPR7441
012024072402B3SA3       010B3          ON      NM   R$  000000000111100000000011160000000001103000000000110800000000011030000000001102000000000110426658000000000018716400000000020742130500000000000000009999123100000010000000000000BRB3SAACNOR6133
012024072402VITT3       010VITTIA      ON      NM   R$  000000000062100000000006210000000000607000000000061000000000006070000000000607000000000061500701000000000000173400000000000105925300000000000000009999123100000010000000000000BRVITTACNOR4107
012024072402VIVA3       010VIVARA S.A. ON      NM   R$  000000000226200000000023390000000002235000000000226600000000022550000000002255000000000225609336000000000002714100000000006152237200000000000000009999123100000010000000000000BRVIVAACNOR0107
012024072402VIVR3       010VIVER       ON      NM   R$  000000000023000000000002360000000000214000000000022000000000002170000000000217000000000022100188000000000000052700000000000011631900000000000000009999123100000010000000000000BRVIVRACNOR4123
012024072402VIVT3       010TELEF BRASILON           R$  000000000485700000000049160000000004857000000000490100000000049090000000004899000000000491008445000000000001482100000000007264892400000000000000009999123100000010000000000000BRVIVTACNOR0182
012024072402VLID3       010VALID       ON      NM   R$  000000000174400000000017440000000001675000000000169700000000016750000000001675000000000168303126000000000000499900000000000848618800000000000000009999123100000010000000000000BRVLIDACNOR5143
012024072402YDUQ3       010YDUQS PART  ON      NM   R$  000000000109900000000010990000000001059000000000107400000000010640000000001063000000000106410016000000000003505000000000003764842300000000000000009999123100000010000000000000BRYDUQACNOR3105
012024072402PFRM3       010PROFARMA    ON      NM   R$  000000000056600000000005770000000000547000000000056200000000005750000000000575000000000057600873000000000000216100000000000121608800000000000000009999123100000010000000000000BRPFRMACNOR1116
012024072402PGMN3       010PAGUE MENOS ON      NM   R$  000000000026300000000002640000000000255000000000025800000000002550000000000255000000000025701421000000000000618600000000000159642900000000000000009999123100000010000000000000BRPGMNACNOR8103
012024072402PINE3       010PINE        ON      N2   R$  000000000055800000000006010000000000558000000000057700000000005840000000000558000000000058500004000000000000000500000000000000288600000000000000009999123100000010000000000000BRPINEACNOR1150
012024072402VAMO3       010VAMOS       ON      NM   R$  000000000088300000000009130000000000870000000000089800000000009010000000000901000000000090415020000000000008134200000000007311892300000000000000009999123100000010000000000000BRVAMOACNOR7105
012024072402VBBR3       010VIBRA       ON      NM   R$  000000000228700000000022980000000002262000000000228200000000022830000000002283000000000229014728000000000003919100000000008945324000000000000000009999123100000010000000000000BRVBBRACNOR1108
012024072402RANI3       010IRANI       ON      NM   R$  000000000087800000000008820000000000871000000000087600000000008790000000000877000000000087901914000000000000648000000000000567771900000000000000009999123100000010000000000000BRRANIACNOR5072
012024072402RAPT3       010RANDON PART ON  EJ  N1   R$  000000000097400000000009740000000000960000000000096400000000009690000000000960000000000096900132000000000000024700000000000023819900000000000000009999123100000010000000000000BRRAPTACNOR7163
012024072402RAPT4       010RANDON PART PN  EJ  N1   R$  000000000116900000000011690000000001115000000000112400000000011180000000001118000000000112408642000000000002013000000000002263088800000000000000009999123100000010000000000000BRRAPTACNPR4163
012024072402PRIO3       010PETRORIO    ON  ATZ NM   R$  000000000439900000000046280000000004381000000000452600000000046000000000004595000000000460230963000000000017095600000000077381316300000000000000009999123100000010000000000000BRPRIOACNOR1107
012024072402UCAS3       010UNICASA     ON      NM   R$  000000000024100000000002410000000000228000000000023100000000002280000000000228000000000023100196000000000000054600000000000012630600000000000000009999123100000010000000000000BRUCASACNOR1113
012024072402UGPA3       010ULTRAPAR    ON      NM   R$  000000000226100000000023060000000002260000000000228700000000022770000000002276000000000229016975000000000003314000000000007580859300000000000000009999123100000010000000000000BRUGPAACNOR8155
012024072402UNIP3       010UNIPAR      ON           R$  000000000502000000000050200000000004977000000000499400000000050200000000005004000000000507200019000000000000002900000000000014483100000000000000009999123100000010000000000000BRUNIPACNOR7206
012024072402ENEV3       010ENEVA       ON      NM   R$  000000000126100000000012730000000001252000000000126300000000012610000000001261000000000126715482000000000006180300000000007809486800000000000000009999123100000010000000000000BRENEVACNOR8106
012024072402IFCM3       010INFRACOMM   ON      NM   R$  000000000003600000000000360000000000034000000000003500000000000350000000000034000000000003502182000000000004789800000000000168392300000000000000009999123100000010000000000000BRIFCMACNOR8101
012024072402IGTI11      010IGUATEMI S.AUNT     N1   R$  000000000214300000000021500000000002098000000000211200000000021110000000002110000000000211407906000000000001803900000000003810122200000000000000009999123100000010000000000000BRIGTICDAM16106
012024072402IGTI3       010IGUATEMI S.AON      N1   R$  000000000026400000000002660000000000261000000000026200000000002620000000000262000000000026300082000000000000017800000000000004675500000000000000009999123100000010000000000000BRIGTIACNOR8106
012024072402IGTI4       010IGUATEMI S.APN      N1   R$  000000000093700000000009370000000000922000000000092300000000009220000000000900000000000093500005000000000000000700000000000000646300000000000000009999123100000010000000000000BRIGTIACNPR5106
012024072402LUPA3       010LUPATECH    ON      NM   R$  000000000018100000000001890000000000177000000000018300000000001810000000000181000000000018200367000000000000266600000000000048976300000000000000009999123100000010000000000000BRLUPAACNOR8112
012024072402PCAR3       010P.ACUCAR-CBDON      NM   R$  000000000029000000000002980000000000280000000000028800000000002860000000000285000000000028612046000000000019542600000000005639180800000000000000009999123100000010000000000000BRPCARACNOR3167
012024072402ASAI3       010ASSAI       ON      NM   R$  000000000104200000000010590000000001000000000000102400000000010000000000001000000000000100128361000000000020101500000000020592510000000000000000009999123100000010000000000000BRASAIACNOR0106
012024072407TXRX4       010TEX RENAUX  PN           R$  000000000024000000000002400000000000225000000000022600000000002260000000000226000000000023600006000000000000003300000000000000748900000000000000009999123100000010000000000000BRTXRXACNPR0142
012024072408NEXP3       010NEXPE       ON           R$  000000000042200000000004220000000000422000000000042200000000004220000000000408000000000042200002000000000000000200000000000000084400000000000000009999123100000010000000000000BRNEXPACNOR0101
012024072408PMAM3       010PARANAPANEMAON      NM   R$  000000000023700000000002390000000000235000000000023600000000002390000000000238000000000023900126000000000000075800000000000017937300000000000000009999123100000010000000000000BRPMAMACNOR3039
012024072408RSID3       010ROSSI RESID ON      NM   R$  000000000043200000000004440000000000432000000000043800000000004400000000000430000000000044400029000000000000004700000000000002062300000000000000009999123100000010000000000000BRRSIDACNOR8120
012024072408JFEN3       010JOAO FORTES ON           R$  000000000003600000000000440000000000029000000000003500000000000430000000000042000000000004303440000000000022094800000000000787935500000000000000009999123100000010000000000000BRJFENACNOR0059
012024072408LIGT3       010LIGHT S/A   ON      NM   R$  000000000042300000000004250000000000406000000000041700000000004250000000000423000000000042501811000000000000558200000000000233044800000000000000009999123100000010000000000000BRLIGTACNOR2124
012024072408AMER3       010AMERICANAS  ON      NM   R$  000000000008000000000000830000000000075000000000007700000000000760000000000076000000000007703589000000000034091500000000002651367600000000000000009999123100000010000000000000BRAMERACNOR6102
012024072408ETER3       010ETERNIT     ON      NM   R$  000000000058300000000006270000000000579000000000059900000000006150000000000613000000000061502850000000000001437200000000000861567000000000000000009999123100000010000000000000BRETERACNOR3243
012024072412NEWU11      010FII NEWRU   CI           R$  000000000799000000000079900000000007990000000000799000000000079900000000007990000000000804500004000000000000000578000000000004618220000000000000009999123100000010000000000000BRNEWUCTF005122
012024072412NSLU11      010FII LOURDES CI           R$  000000001878300000000189890000000018580000000001876800000000185800000000018580000000001868500062000000000000002244000000000042117116000000000000009999123100000010000000000000BRNSLUCTF008312
012024072412GSFI11      010FII GENERAL CI           R$  000000000079100000000008050000000000791000000000079900000000008020000000000793000000000080300056000000000000625534000000000500425931000000000000009999123100000010000000000000BRGSFICTF009102
012024072412GTWR11      010FII G TOWERSCI           R$  000000000830000000000083000000000008226000000000826400000000082600000000008256000000000826001017000000000000007504000000000062014616000000000000009999123100000010000000000000BRGTWRCTF003164
012024072412GZIT11      010FII GAZIT   CI           R$  000000000562000000000056490000000005600000000000560400000000056010000000005601000000000561403061000000000000020857000000000116893110000000000000009999123100000010000000000000BRGZITCTF005108
012024072412HAAA11      010FII HEDGEAAACI           R$  000000000344700000000034470000000003447000000000344700000000034470000000003453000000000399000001000000000000000001000000000000003447000000000000009999123100000010000000000000BRHAAACTF003144
012024072412HABT11      010FII HABIT IICI           R$  000000000899900000000090450000000008958000000000899000000000089660000000008966000000000899001268000000000000011194000000000100636559000000000000009999123100000010000000000000BRHABTCTF001161
012024072412HBCR11      010FII HBC REN CI  ERA      R$  000000001358100000000135810000000013581000000001358100000000135810000000009507000000000000006251000000000000195038000000002648811078000000000000009999123100000010000000000000BRHBCRCTF001143
012024072412JPPA11      010FII JPPA CRICI           R$  000000000824500000000082530000000008202000000000821800000000082020000000008212000000000825200232000000000000003539000000000029085730000000000000009999123100000010000000000000BRJPPACTF005162
012024072412HRDF11      010FII HREALTY CI           R$  000000000033200000000003350000000000330000000000033000000000003350000000000330000000000033500005000000000000000828000000000000273563000000000000009999123100000010000000000000BRHRDFCTF000103
012024072412HREC11      010FII HEDGERECCI           R$  000000000087400000000008740000000000865000000000087000000000008700000000000862000000000087100050000000000000002962000000000002576973000000000000009999123100000010000000000000BRHRECCTF005150
012024072412HSAF11      010FII HSI CRI CI           R$  000000000855100000000086360000000008551000000000860600000000086000000000008600000000000863200284000000000000002862000000000024631989000000000000009999123100000010000000000000BRHSAFCTF004149
012024072412HSLG11      010FII HSI LOG CI           R$  000000000877900000000088290000000008760000000000878000000000087650000000008765000000000878000795000000000000004575000000000040169803000000000000009999123100000010000000000000BRHSLGCTF009143
012024072412HSML11      010FII HSI MALLCI           R$  000000000970000000000097000000000009644000000000966400000000096840000000009684000000000969907186000000000000048163000000000465477221000000000000009999123100000010000000000000BRHSMLCTF007162
012024072412HSRE11      010FII HSIRENDACI           R$  000000001079300000000107930000000009999000000001005500000000100000000000010000000000001019000158000000000000006199000000000062332021000000000000009999123100000010000000000000BRHSRECTF001142
012024072412HTMX11      010FII HOTEL MXCI           R$  000000001799800000000180500000000017899000000001800700000000180430000000018025000000001804300457000000000000001818000000000032737934000000000000009999123100000010000000000000BRHTMXCTF000281
012024072412HUCG11      010FII UNIMED CCI           R$  000000000945000000000094500000000008700000000000884300000000087000000000008416000000000870000020000000000000000274000000000002423088000000000000009999123100000010000000000000BRHUCGCTF004120
012024072412HUSC11      010FII H UNIMEDCI           R$  000000001100000000000112480000000011000000000001100200000000112480000000010948000000001124900015000000000000000772000000000008494232000000000000009999123100000010000000000000BRHUSCCTF009153
012024072412IBCR11      010FII BREI    CI           R$  000000000719500000000071950000000007085000000000712900000000070870000000007087000000000710000055000000000000000610000000000004348966000000000000009999123100000010000000000000BRIBCRCTF009138
012024072412KNCR11      010FII KINEA RICI           R$  000000001047000000000105390000000010459000000001051400000000105390000000010539000000001054012896000000000000105981000000001114327616000000000000009999123100000010000000000000BRKNCRCTF000241
012024072412KNHF11      010FII KINEA HFCI           R$  000000000969000000000097700000000009690000000000972000000000097250000000009720000000000972400950000000000000015128000000000147051962000000000000009999123100000010000000000000BRKNHFCTF004112
012024072412KNHY11      010FII KINEA HYCI           R$  000000001064800000000106830000000010625000000001064800000000106700000000010650000000001067006057000000000000045668000000000486277472000000000000009999123100000010000000000000BRKNHYCTF005173
012024072412KNIP11      010FII KINEA IPCI           R$  000000000953100000000096000000000009531000000000957000000000095600000000009556000000000956004452000000000000069935000000000669324603000000000000009999123100000010000000000000BRKNIPCTF001194
012024072412KNRE11      010FII KII REALCI           R$  000000000004200000000000430000000000041000000000004100000000000420000000000041000000000004300017000000000000003027000000000000126988000000000000009999123100000010000000000000BRKNRECTF006129
012024072412EQIR11      010FII EQI RECECI  ER       R$  000000000090000000000009050000000000899000000000090200000000009050000000000904000000000090500591000000000000013181000000000011889482000000000000009999123100000010000000000000BREQIRCTF003134
012024072412PLCR11      010FII PLURAL RCI           R$  000000000861500000000086150000000008561000000000859600000000085940000000008595000000000860600290000000000000001328000000000011415958000000000000009999123100000010000000000000BRPLCRCTF003156
012024072412PLRI11      010FII POLO I  CI           R$  000000000130100000000013010000000001300000000000130000000000013010000000001314000000000159900004000000000000000020000000000000026010000000000000009999123100000010000000000000BRPLRICTF000243
012024072412PMIS11      010FII PMIS    CI           R$  000000000095000000000009590000000000935000000000094500000000009500000000000941000000000094900568000000000000063303000000000059847336000000000000009999123100000010000000000000BRPMISCTF006107
012024072412PORD11      010FII POLO CRICI           R$  000000000091800000000009180000000000910000000000091300000000009140000000000914000000000091500836000000000000042818000000000039112234000000000000009999123100000010000000000000BRPORDCTF005175
012024072412ZAGH11      010FII ZAGH    CI           R$  000000000120000000000012000000000001199000000000119900000000012000000000000880000000000120000008000000000000000014000000000000016797000000000000009999123100000010000000000000BRZAGHCTF007105
012024072412ZAVI11      010FII ZAVIT R CI           R$  000000001023000000000102960000000010167000000001023500000000102660000000010201000000001026000090000000000000000166000000000001699044000000000000009999123100000010000000000000BRZAVICTF004122
012024072412ZIFI11      010FII ZION    CI           R$  000000007099400000000709940000000070994000000007099400000000709940000000030000000000007000000001000000000000000001000000000000070994000000000000009999123100000010000000000000BRZIFICTF000103
012024072412PQAG11      010FII PARQ ANHCI           R$  000000000590100000000059520000000005850000000000588100000000059430000000005876000000000596300020000000000000000131000000000000770514000000000000009999123100000010000000000000BRPQAGCTF009149
012024072412PQDP11      010FII D PEDRO CI           R$  000000019199900000001919990000000191402000000019158000000001915010000000191500000000019199900013000000000000000027000000000005172678000000000000009999123100000010000000000000BRPQDPCTF004272
012024072412AIEC11      010FII AUTONOMYCI           R$  000000000543100000000054750000000005431000000000544900000000054650000000005462000000000546900253000000000000002898000000000015792047000000000000009999123100000010000000000000BRAIECCTF009146
012024072412AJFI11      010FII AJ MALLSCI           R$  000000000087000000000008700000000000851000000000085800000000008630000000000863000000000086513539000000000000082589000000000070861948000000000000009999123100000010000000000000BRAJFICTF001108
012024072412CPFF11      010FII CAP REITCI           R$  000000000727200000000072790000000007257000000000725800000000072630000000007262000000000726300057000000000000001365000000000009907518000000000000009999123100000010000000000000BRCPFFCTF000157
012024072412CPOF11      010FII CPOF    CI  ER       R$  000000001085000000000108500000000010849000000001084900000000108490000000000000000000001085000003000000000000193699000000002101440452000000000000009999123100000010000000000000BRCPOFCTF002108
012024072412CPSH11      010FII CPSH    CI  ER       R$  000000000111000000000011100000000001085000000000110100000000011000000000001100000000000110102476000000000000222189000000000244777287000000000000009999123100000010000000000000BRCPSHCTF017115
012024072412CPTS11      010FII CAPI SECCI           R$  000000000083600000000008360000000000824000000000083000000000008270000000000826000000000082719590000000000000752511000000000624767259000000000000009999123100000010000000000000BRCPTSCTF004232
012024072412GGRC11      010FII GGRCOVEPCI           R$  000000000110200000000011020000000001094000000000109700000000010940000000001094000000000109605017000000000000160375000000000176011086000000000000009999123100000010000000000000BRGGRCCTF002195
012024072412GLOG11      010FII PLURAL LCI           R$  000000000632100000000063460000000006180000000000622900000000062040000000006203000000000626900031000000000000000170000000000001059070000000000000009999123100000010000000000000BRGLOGCTF000114
012024072412JCCJ11      010FII JHSF CJ CI           R$  000000001450000000000145000000000014500000000001450000000000145000000000013500000000000000000029000000000000159960000000002319420000000000000000009999123100000010000000000000BRJCCJCTF002112
012024072412JFLL11      010FII JFL LIV CI           R$  000000000735000000000073500000000007291000000000731400000000073490000000007292000000000734900118000000000000002448000000000017905447000000000000009999123100000010000000000000BRJFLLCTF002141
012024072412ABCP11      010FII ABC IMOBCI           R$  000000000669000000000067130000000006680000000000669200000000066850000000006685000000000669700062000000000000000468000000000003131888000000000000009999123100000010000000000000BRABCPCTF000340
012024072412MINT11      010FII MINT EDUCI           R$  000000000997000000000099700000000009850000000000986700000000098500000000009850000000000997000002000000000000000007000000000000069070000000000000009999123100000010000000000000BRMINTCTF009103
012024072412CNES11      010FII CENESP  CI  ER       R$  000000000015000000000001510000000000148000000000014900000000001500000000000149000000000015000411000000000000036945000000000005518193000000000000009999123100000010000000000000BRCNESCTF001261
012024072412EDFO11      010FII OURINVESCI           R$  000000001840000000000186000000000018399000000001854200000000186000000000018200000000001891400012000000000000000056000000000001038394000000000000009999123100000010000000000000BREDFOCTF004324
012024072412EDGA11      010FII GALERIA CI           R$  000000000188000000000018810000000001870000000000187300000000018810000000001872000000000188100122000000000000001434000000000002686719000000000000009999123100000010000000000000BREDGACTF001242
012024072412EGYR11      010FII ENERGY  CI           R$  000000000051800000000005240000000000471000000000050600000000004990000000000500000000000051000021000000000000000145000000000000073432000000000000009999123100000010000000000000BREGYRCTF001102
012024072412FAED11      010FII ANH EDUCCI           R$  000000001539000000000153960000000015260000000001532000000000153470000000015260000000001534900050000000000000000256000000000003922094000000000000009999123100000010000000000000BRFAEDCTF003279
012024072412FAMB11      010FII ALMIRANTCI           R$  000000005149900000000515000000000051499000000005149900000000515000000000051000000000005349000002000000000000000021000000000001081499000000000000009999123100000010000000000000BRFAMBCTF018316
012024072412FATN11      010FII ATHENA ICI           R$  000000000921300000000092130000000009197000000000920200000000092000000000009199000000000920000425000000000000007016000000000064563937000000000000009999123100000010000000000000BRFATNCTF000153
012024072412FCFL11      010FII CAMPUSFLCI  ER       R$  000000001167300000000118610000000011656000000001168000000000116700000000011655000000001167000070000000000000001875000000000021901442000000000000009999123100000010000000000000BRFCFLCTF009271
012024072412FIGS11      010FII GEN SHOPCI           R$  000000000554200000000055750000000005495000000000551400000000055170000000005517000000000551800220000000000000003007000000000016580974000000000000009999123100000010000000000000BRFIGSCTF009229
012024072412FIIB11      010FII INDL BR CI           R$  000000005110000000000519970000000050345000000005126300000000509750000000050767000000005097500107000000000000000361000000000018505991000000000000009999123100000010000000000000BRFIIBCTF001252
012024072412FIIP11B     010FII RB CAP ICI      MB   R$  000000001799800000000182470000000017685000000001786200000000182470000000017701000000001824700167000000000000001630000000000029115966000000000000009999123100000010000000000000BRFIIPCTF001275
012024072412FISC11      010FII SC 401  CI           R$  000000000700000000000070000000000007000000000000700000000000070000000000006186000000000749500001000000000000000002000000000000014000000000000000009999123100000010000000000000BRFISCCTF008137
012024072412FIVN11      010FII VIDANOVACI           R$  000000000027100000000002760000000000267000000000027300000000002740000000000275000000000027900024000000000000001819000000000000497912000000000000009999123100000010000000000000BRFIVNCTF009100
012024072412HCHG11      010FII HECT CRICI           R$  000000000691000000000070580000000006905000000000690600000000069050000000006905000000000705800011000000000000000192000000000001325983000000000000009999123100000010000000000000BRHCHGCTF001138
012024072412HCRI11      010FII CRIANCA CI  ER       R$  000000002799900000000279990000000027603000000002781300000000279340000000027934000000002799900010000000000000000012000000000000333757000000000000009999123100000010000000000000BRHCRICTF006330
012024072412MCHY11      010FII MAUA HY CI  ER       R$  000000000095000000000009540000000000946000000000094800000000009510000000000949000000000095119581000000000000403007000000000382451245000000000000009999123100000010000000000000BRMCHYCTF004139
012024072412MCEM11      010FII MCEM    CI           R$  000000001080500000000109290000000010800000000001080600000000108540000000010800000000001099700005000000000000000040000000000000432268000000000000009999123100000010000000000000BRMCEMCTF006100
012024072412MCCI11      010FII MAUA    CI           R$  000000000920200000000092400000000009165000000000919800000000092140000000009192000000000921401314000000000000018814000000000173058268000000000000009999123100000010000000000000BRMCCICTF008163
012024072412MAXR11      010FII MAX RET CI           R$  000000000819700000000082000000000008123000000000819000000000081960000000008180000000000819300028000000000000000206000000000001687214000000000000009999123100000010000000000000BRMAXRCTF009269
012024072412MANA11      010FII MANATI  CI           R$  000000000096200000000009660000000000958000000000096000000000009610000000000961000000000096301507000000000000031134000000000029916126000000000000009999123100000010000000000000BRMANACTF006126
012024072412MALL11      010FII MALLS BPCI           R$  000000001135700000000113620000000011216000000001132900000000113050000000011292000000001130503209000000000000101520000000001150175597000000000000009999123100000010000000000000BRMALLCTF007182
012024072412CYCR11      010FII CYRELA  CI           R$  000000000096900000000009710000000000968000000000096900000000009680000000000968000000000096900550000000000000105301000000000102130849000000000000009999123100000010000000000000BRCYCRCTF004140
012024072412CXTL11      010FII CX TRX  CI           R$  000000002339700000000233970000000023217000000002330700000000232170000000022346000000002338100002000000000000000002000000000000046614000000000000009999123100000010000000000000BRCXTLCTF003238
012024072412CARE11      010FII DEA CARECI           R$  000000000016600000000001820000000000166000000000017500000000001770000000000173000000000017700122000000000000005379000000000000941772000000000000009999123100000010000000000000BRCARECTF000112
012024072412CACR11      010CARTESIA FIICI           R$  000000001046200000000104700000000010441000000001045500000000104700000000010460000000001047001031000000000000013039000000000136330389000000000000009999123100000010000000000000BRCACRCTF004134
012024072412BTRA11      010FII BTG TAGRCI           R$  000000000534500000000054100000000005261000000000532000000000052610000000005261000000000535500287000000000000004846000000000025782448000000000000009999123100000010000000000000BRBTRACTF000137
012024072412BTLG11      010FII BTLG    CI  ER       R$  000000001016100000000102100000000010065000000001012700000000100920000000010092000000001010013016000000000000067617000000000684802120000000000000009999123100000010000000000000BRBTLGCTF000164
012024072412BTHI11      010BTG HOTEL FICI           R$  000000000397000000000041000000000003970000000000407200000000040010000000004000000000000409900038000000000000000184000000000000749353000000000000009999123100000010000000000000BRBTHICTF004110
012024072412BTCI11      010FII BTG CRI CI           R$  000000000099900000000010020000000000992000000000099500000000009990000000000997000000000099907609000000000000142119000000000141440839000000000000009999123100000010000000000000BRBTCICTF005121
012024072412BTAL11      010FII BTG AGROCI  ER       R$  000000000789900000000078990000000007790000000000783000000000078400000000007830000000000784002473000000000000010621000000000083164089000000000000009999123100000010000000000000BRBTALCTF003141
012024072412BROF11      010FII BROF    CI  ER       R$  000000000504200000000050420000000004952000000000500000000000050150000000005015000000000502600289000000000000002346000000000011731765000000000000009999123100000010000000000000BRBROFCTF000115
012024072412BLCA11      010FII BLUE AAACI           R$  000000001029500000000102950000000009901000000000992600000000101100000000009901000000001011900012000000000000000099000000000000982687000000000000009999123100000010000000000000BRBLCACTF009132
012024072410RENT1       010LOCALIZA    DIR ORD NM   R$  000000000108000000000013000000000000962000000000104900000000013000000000001300000000000140000214000000000000065900000000000069146500000000000000009999123100000010000000000000BRRENTD06OR8195
012024072408RPMG3       010PET MANGUINHON           R$  000000000031400000000003190000000000309000000000031300000000003110000000000311000000000031500131000000000000020300000000000006373800000000000000009999123100000010000000000000BRRPMGACNOR9194
012024072408RNEW4       010RENOVA      PN      N2   R$  000000000008800000000000930000000000087000000000008900000000000870000000000086000000000008700209000000000000190800000000000017004600000000000000009999123100000010000000000000BRRNEWACNPR5110
012024072408RNEW3       010RENOVA      ON      N2   R$  000000000008900000000000920000000000087000000000008700000000000880000000000088000000000008900147000000000000189500000000000016615600000000000000009999123100000010000000000000BRRNEWACNOR8110
012024072408RNEW11      010RENOVA      UNT     N2   R$  000000000027500000000002800000000000265000000000027300000000002800000000000265000000000028000086000000000000022400000000000006122700000000000000009999123100000010000000000000BRRNEWCDAM15110
012024072402SYNE3       010SYN PROP TECON      NM   R$  000000000102500000000010250000000001013000000000101700000000010130000000001012000000000101800907000000000000178200000000000181286300000000000000009999123100000010000000000000BRSYNEACNOR2102
012024072402RENT3       010LOCALIZA    ON      NM   R$  000000000431900000000043810000000004242000000000430200000000043300000000004330000000000433225713000000000006560200000000028226366800000000000000009999123100000010000000000000BRRENTACNOR4196
012024072402REDE3       010REDE ENERGIAON           R$  000000000069300000000006970000000000693000000000069400000000006930000000000691000000000069400007000000000000001600000000000001110500000000000000009999123100000010000000000000BRREDEACNOR7128
012024072402TEND3       010TENDA       ON      NM   R$  000000000126900000000012790000000001236000000000126100000000012730000000001270000000000127405291000000000001356100000000001711191100000000000000009999123100000010000000000000BRTENDACNOR4111
012024072402TELB4       010TELEBRAS    PN           R$  000000000093400000000009500000000000925000000000094400000000009300000000000921000000000093200018000000000000004400000000000004157100000000000000009999123100000010000000000000BRTELBACNPR9140
012024072402TELB3       010TELEBRAS    ON           R$  000000000136000000000013600000000001340000000000134500000000013500000000001335000000000135900005000000000000000500000000000000672600000000000000009999123100000010000000000000BRTELBACNOR2140
012024072402TECN3       010TECHNOS     ON      NM   R$  000000000060500000000006100000000000523000000000055000000000005260000000000526000000000053401185000000000000512600000000000282309400000000000000009999123100000010000000000000BRTECNACNOR6109
012024072402TCSA3       010TECNISA     ON      NM   R$  000000000022500000000002250000000000219000000000022100000000002190000000000219000000000022000125000000000000042900000000000009503300000000000000009999123100000010000000000000BRTCSAACNOR3112
012024072402TASA4       010TAURUS ARMASPN      N2   R$  000000000120100000000012010000000001168000000000117500000000011680000000001168000000000117001010000000000000188900000000000222069100000000000000009999123100000010000000000000BRTASAACNPR4104
012024072402TASA3       010TAURUS ARMASON      N2   R$  000000000120000000000012130000000001192000000000119700000000011930000000001192000000000120000037000000000000006600000000000007904100000000000000009999123100000010000000000000BRTASAACNOR7104
012024072402TAEE4       010TAESA       PN      N2   R$  000000000113600000000011380000000001131000000000113400000000011360000000001133000000000113601042000000000000250000000000000283644000000000000000009999123100000010000000000000BRTAEEACNPR6147
012024072402TAEE3       010TAESA       ON      N2   R$  000000000112900000000011290000000001119000000000112200000000011250000000001121000000000112500747000000000000154100000000000172943100000000000000009999123100000010000000000000BRTAEEACNOR9147
012024072402TAEE11      010TAESA       UNT     N2   R$  000000000339900000000034000000000003375000000000338500000000033800000000003379000000000338506916000000000001317800000000004461528100000000000000009999123100000010000000000000BRTAEECDAM10147
012024072402RRRP3       0103R PETROLEUMON      NM   R$  000000000267100000000026740000000002617000000000263900000000026330000000002633000000000263515933000000000004410100000000011641044800000000000000009999123100000010000000000000BRRRRPACNOR5103
012024072402ROMI3       010ROMI        ON      NM   R$  000000000107900000000010830000000001061000000000106600000000010610000000001061000000000106301156000000000000180200000000000192245200000000000000009999123100000010000000000000BRROMIACNOR8195
012024072402PETZ3       010PETZ        ON      NM   R$  000000000037500000000003750000000000354000000000036000000000003540000000000354000000000035512170000000000011047600000000003988004100000000000000009999123100000010000000000000BRPETZACNOR2110
012024072402PETR4       010PETROBRAS   PN      N2   R$  000000000376600000000038000000000003750000000000377700000000037730000000003773000000000377843698000000000023863800000000090155544800000000000000009999123100000010000000000000BRPETRACNPR6213
012024072402PETR3       010PETROBRAS   ON      N2   R$  000000000405500000000041300000000004055000000000410200000000040900000000004090000000000409522371000000000009144600000000037513497500000000000000009999123100000010000000000000BRPETRACNOR9205
012024072402PEAB3       010PAR AL BAHIAON           R$  000000000440000000000044000000000004400000000000440000000000044000000000004300000000000450000001000000000000000300000000000001320000000000000000009999123100000010000000000000BRPEABACNOR3133
012024072402PDTC3       010PADTEC      ON      NM   R$  000000000019200000000001960000000000188000000000019300000000001920000000000192000000000019400045000000000000011800000000000002278100000000000000009999123100000010000000000000BRPDTCACNOR3101
012024072402PDGR3       010PDG REALT   ON      NM   R$  000000000001800000000000190000000000017000000000001800000000000180000000000018000000000001900754000000000003688900000000000066477700000000000000009999123100000010000000000000BRPDGRACNOR8118
012024072402MGLU3       010MAGAZ LUIZA ON      NM   R$  000000000121600000000012230000000001160000000000118200000000011670000000001166000000000116718371000000000017578600000000020787990800000000000000009999123100000010000000000000BRMGLUACNOR2124
012024072402MERC4       010MERC FINANC PN           R$  000000000100000000000010350000000001000000000000100800000000010350000000000695000000000103500003000000000000001300000000000001310500000000000000009999123100000010000000000000BRMERCACNPR9180
012024072402MELK3       010MELNICK     ON      NM   R$  000000000036000000000003650000000000349000000000035300000000003490000000000349000000000035000486000000000000295000000000000104301500000000000000009999123100000010000000000000BRMELKACNOR8111
012024072402MEAL3       010IMC S/A     ON      NM   R$  000000000015700000000001570000000000152000000000015500000000001560000000000153000000000015600738000000000000544500000000000084509900000000000000009999123100000010000000000000BRMEALACNOR9105
012024072402MDNE3       010MOURA DUBEUXON      NM   R$  000000000134200000000013420000000001306000000000132200000000013300000000001323000000000133201700000000000000319400000000000422512700000000000000009999123100000010000000000000BRMDNEACNOR9100
012024072402BIOM3       010BIOMM       ON      MA   R$  000000000122200000000012220000000001180000000000119500000000011800000000001180000000000118700220000000000000046300000000000055358200000000000000009999123100000010000000000000BRBIOMACNOR2112
012024072402BHIA3       010CASAS BAHIA ON      NM   R$  000000000047800000000004810000000000472000000000047600000000004800000000000478000000000048003444000000000003853100000000001835863300000000000000009999123100000010000000000000BRBHIAACNOR1102
012024072402BGIP4       010BANESE      PN           R$  000000000221400000000022140000000002214000000000221400000000022140000000002227000000000228900001000000000000000300000000000000664200000000000000009999123100000010000000000000BRBGIPACNPR8208
012024072402ITSA3       010ITAUSA      ON      N1   R$  000000000103100000000010310000000001023000000000102600000000010230000000001023000000000102600176000000000000042500000000000043638600000000000000009999123100000010000000000000BRITSAACNOR0441
012024072402EZTC3       010EZTEC       ON      NM   R$  000000000142700000000014310000000001369000000000138500000000013690000000001369000000000137005982000000000002233600000000003094397100000000000000009999123100000010000000000000BREZTCACNOR0125
012024072402EVEN3       010EVEN        ON      NM   R$  000000000062500000000006250000000000612000000000061600000000006150000000000615000000000061603708000000000000604600000000000372459600000000000000009999123100000010000000000000BREVENACNOR8119
012024072402EUCA4       010EUCATEX     PN      N1   R$  000000000157000000000015810000000001496000000000152400000000015300000000001521000000000153400505000000000000069600000000000106094800000000000000009999123100000010000000000000BREUCAACNPR8044
012024072402EUCA3       010EUCATEX     ON      N1   R$  000000000162600000000016980000000001625000000000166300000000016330000000001626000000000164200010000000000000001000000000000001663900000000000000009999123100000010000000000000BREUCAACNOR1157
012024072402ESTR4       010ESTRELA     PN           R$  000000000019900000000001990000000000199000000000019900000000001990000000000199000000000020500002000000000000000300000000000000059700000000000000009999123100000010000000000000BRESTRACNPR0144
012024072402ESPA3       010ESPACOLASER ON      NM   R$  000000000009800000000001010000000000098000000000009900000000001000000000000099000000000010000397000000000000529400000000000052549900000000000000009999123100000010000000000000BRESPAACNOR7103
012024072402ECOR3       010ECORODOVIAS ON      NM   R$  000000000069600000000007150000000000692000000000070100000000006960000000000696000000000069808859000000000004976900000000003492267200000000000000009999123100000010000000000000BRECORACNOR8120
012024072402EALT4       010ACO ALTONA  PN           R$  000000000114200000000011590000000001142000000000115100000000011450000000001143000000000116000010000000000000001600000000000001843000000000000000009999123100000010000000000000BREALTACNPR1138
012024072402EALT3       010ACO ALTONA  ON           R$  000000000110000000000011000000000001100000000000110000000000011000000000001034000000000109500002000000000000000300000000000000330000000000000000009999123100000010000000000000BREALTACNOR4138
012024072402DXCO3       010DEXCO       ON      NM   R$  000000000070500000000007110000000000695000000000070100000000007020000000000702000000000070508689000000000004559800000000003198047100000000000000009999123100000010000000000000BRDXCOACNOR8105
012024072402DOTZ3       010DOTZ SA     ON      NM   R$  000000000066800000000006730000000000645000000000066700000000006450000000000645000000000066800058000000000000018400000000000012281500000000000000009999123100000010000000000000BRDOTZACNOR7101
012024072402DOHL4       010DOHLER      PN           R$  000000000040200000000004100000000000398000000000040600000000004090000000000398000000000040600007000000000000000900000000000000365700000000000000009999123100000010000000000000BRDOHLACNPR9066
012024072402DMVF3       010D1000VFARMA ON      NM   R$  000000000079300000000007970000000000771000000000078500000000007890000000000774000000000078900623000000000000094900000000000074527000000000000000009999123100000010000000000000BRDMVFACNOR9100
012024072402DIRR3       010DIRECIONAL  ON      NM   R$  000000000284400000000028560000000002806000000000282700000000028430000000002843000000000284408601000000000001461000000000004130878300000000000000009999123100000010000000000000BRDIRRACNOR0118
012024072402DEXP4       010DEXXOS PAR  PN      N1   R$  000000000102100000000010210000000001015000000000101600000000010150000000001004000000000102000003000000000000001100000000000001117700000000000000009999123100000010000000000000BRDEXPACNPR8105
012024072402DEXP3       010DEXXOS PAR  ON      N1   R$  000000000102200000000010470000000001017000000000103100000000010390000000001031000000000104300214000000000000030800000000000031767700000000000000009999123100000010000000000000BRDEXPACNOR1105
012024072402DESK3       010DESKTOP     ON      NM   R$  000000000155300000000015900000000001537000000000156500000000015630000000001563000000000157000532000000000000196200000000000307189400000000000000009999123100000010000000000000BRDESKACNOR2104
012024072402BRBI11      010BR PARTNERS UNT     N2   R$  000000000142300000000014260000000001387000000000139400000000013870000000001387000000000140101349000000000000336600000000000469375200000000000000009999123100000010000000000000BRBRBICDAM10109
012024072402BRAP4       010BRADESPAR   PN      N1   R$  000000000186400000000018710000000001850000000000185700000000018500000000001850000000000185604396000000000001633800000000003035252300000000000000009999123100000010000000000000BRBRAPACNPR2148
012024072402BRAP3       010BRADESPAR   ON      N1   R$  000000000180500000000018060000000001784000000000179200000000018010000000001800000000000180400323000000000000060400000000000108278500000000000000009999123100000010000000000000BRBRAPACNOR5148
012024072402AGRO3       010BRASILAGRO  ON      NM   R$  000000000268700000000026960000000002660000000000267800000000026840000000002682000000000268401124000000000000155500000000000416499800000000000000009999123100000010000000000000BRAGROACNOR7114
012024072402AFLT3       010AFLUENTE T  ON           R$  000000000072100000000007210000000000719000000000072000000000007190000000000719000000000074400002000000000000000200000000000000144000000000000000009999123100000010000000000000BRAFLTACNOR1122
012024072402AESB3       010AES BRASIL  ON      NM   R$  000000000113700000000011390000000001136000000000113700000000011390000000001138000000000113901759000000000001544000000000001756735800000000000000009999123100000010000000000000BRAESBACNOR7106
012024072402AERI3       010AERIS       ON      NM   R$  000000000057200000000005770000000000561000000000056700000000005610000000000561000000000056200434000000000000140400000000000079726900000000000000009999123100000010000000000000BRAERIACNOR4102
012024072402MYPK3       010IOCHP-MAXIONON      NM   R$  000000000118700000000012160000000001180000000000119000000000011820000000001181000000000118705980000000000001305900000000001554216700000000000000009999123100000010000000000000BRMYPKACNOR7155
012024072402MULT3       010MULTIPLAN   ON      N2   R$  000000000250700000000025180000000002409000000000244600000000024160000000002416000000000241821953000000000006179000000000015116507600000000000000009999123100000010000000000000BRMULTACNOR5139
012024072402MTRE3       010MITRE REALTYON  ED  NM   R$  000000000039500000000004030000000000386000000000038900000000003970000000000393000000000039701501000000000000955700000000000372579900000000000000009999123100000010000000000000BRMTREACNOR6113
012024072402KLBN4       010KLABIN S/A  PN      N2   R$  000000000043100000000004340000000000429000000000043200000000004310000000000431000000000043201344000000000000981100000000000423858200000000000000009999123100000010000000000000BRKLBNACNPR9170
012024072402KLBN3       010KLABIN S/A  ON      N2   R$  000000000043400000000004360000000000432000000000043300000000004330000000000433000000000043600543000000000000248900000000000108013200000000000000009999123100000010000000000000BRKLBNACNOR2170
012024072402KLBN11      010KLABIN S/A  UNT     N2   R$  000000000215100000000021740000000002150000000000216400000000021710000000002168000000000217111643000000000003440500000000007448521900000000000000009999123100000010000000000000BRKLBNCDAM18142
012024072402KEPL3       010KEPLER WEBERON      NM   R$  000000000104200000000010420000000001017000000000102500000000010270000000001025000000000102703067000000000000831800000000000853332400000000000000009999123100000010000000000000BRKEPLACNOR1063
012024072402JSLG3       010JSL         ON      NM   R$  000000000097000000000009760000000000953000000000096200000000009720000000000970000000000097201997000000000000317400000000000305412500000000000000009999123100000010000000000000BRJSLGACNOR2121
012024072402BPAC5       010BTGP BANCO  PNA     N2   R$  000000000082300000000008290000000000814000000000081800000000008240000000000812000000000082200008000000000000000900000000000000736900000000000000009999123100000010000000000000BRBPACACNPA0134
012024072402BPAC3       010BTGP BANCO  ON      N2   R$  000000000155200000000015720000000001552000000000156200000000015720000000001500000000000157700013000000000000002400000000000003749800000000000000009999123100000010000000000000BRBPACACNOR7134
012024072402BPAC11      010BTGP BANCO  UNT     N2   R$  000000000321500000000032260000000003184000000000320900000000031970000000003196000000000319717990000000000007943300000000025493620600000000000000009999123100000010000000000000BRBPACUNT006119
012024072402ARZZ3       010AREZZO CO   ON      NM   R$  000000000525000000000052650000000005117000000000516700000000051700000000005139000000000517005302000000000001042600000000005387290700000000000000009999123100000010000000000000BRARZZACNOR3147
012024072402ARML3       010ARMAC       ON      NM   R$  000000000098100000000009810000000000950000000000096000000000009610000000000961000000000096302539000000000000672700000000000646294100000000000000009999123100000010000000000000BRARMLACNOR1112
012024072402APER3       010ALPER S.A.  ON           R$  000000000455500000000045550000000004550000000000455200000000045500000000004465000000000454000002000000000000000200000000000000910500000000000000009999123100000010000000000000BRAPERACNOR9106
012024072402ANIM3       010ANIMA       ON  ATZ NM   R$  000000000034500000000003540000000000338000000000034500000000003400000000000339000000000034008135000000000006657700000000002299065400000000000000009999123100000010000000000000BRANIMACNOR6108
012024072402AMBP3       010AMBIPAR     ON      NM   R$  000000000329800000000035430000000003216000000000343300000000034990000000003496000000000349915760000000000004786800000000016436633800000000000000009999123100000010000000000000BRAMBPACNOR6103
012024072402AMAR3       010LOJAS MARISAON      NM   R$  000000000014100000000001450000000000141000000000014200000000001430000000000141000000000014300339000000000000195400000000000027784100000000000000009999123100000010000000000000BRAMARACNOR4115
012024072402ALUP4       010ALUPAR      PN      N2   R$  000000000101500000000010300000000001010000000000102000000000010170000000001025000000000104000062000000000000009600000000000009800700000000000000009999123100000010000000000000BRALUPACNPR5119
012024072402ALUP3       010ALUPAR      ON      N2   R$  000000000109000000000010900000000001069000000000107400000000010740000000001059000000000107400062000000000000007900000000000008488600000000000000009999123100000010000000000000BRALUPACNOR8119
012024072402ALUP11      010ALUPAR      UNT     N2   R$  000000000312200000000031340000000003096000000000312100000000031250000000003121000000000313303814000000000000585100000000001826396500000000000000009999123100000010000000000000BRALUPCDAM15119
012024072402SCAR3       010SAO CARLOS  ON      NM   R$  000000000226500000000022650000000002232000000000226000000000022320000000002232000000000226600028000000000000010200000000000023054700000000000000009999123100000010000000000000BRSCARACNOR7131
012024072402RADL3       010RAIADROGASILON      NM   R$  000000000259200000000026490000000002577000000000262400000000026170000000002616000000000262917574000000000010181900000000026726617800000000000000009999123100000010000000000000BRRADLACNOR0157
012024072402QUAL3       010QUALICORP   ON      NM   R$  000000000016000000000001610000000000154000000000015700000000001560000000000155000000000015602218000000000002436200000000000383683000000000000000009999123100000010000000000000BRQUALACNOR6120
012024072402LOGN3       010LOG-IN      ON      NM   R$  000000000394100000000039830000000003764000000000384400000000038250000000003825000000000386500252000000000000032400000000000124549200000000000000009999123100000010000000000000BRLOGNACNOR3105
012024072402LOGG3       010LOG COM PROPON      NM   R$  000000000216300000000021840000000002147000000000216300000000021610000000002156000000000216101741000000000000308200000000000666753200000000000000009999123100000010000000000000BRLOGGACNOR7107
012024072402LJQQ3       010QUERO-QUERO ON      NM   R$  000000000040700000000004090000000000394000000000039900000000003940000000000393000000000039403751000000000001891600000000000756161900000000000000009999123100000010000000000000BRLJQQACNOR5104
012024072402LEVE3       010METAL LEVE  ON      NM   R$  000000000329000000000032950000000003250000000000327700000000032850000000003284000000000328601122000000000000208800000000000684437300000000000000009999123100000010000000000000BRLEVEACNOR2197
012024072402LAVV3       010LAVVI       ON      NM   R$  000000000092400000000009240000000000895000000000090000000000008960000000000895000000000089701578000000000000319800000000000287828100000000000000009999123100000010000000000000BRLAVVACNOR4112
012024072402LAND3       010TERRASANTAPAON      NM   R$  000000000140700000000014250000000001382000000000140600000000014200000000001420000000000142200377000000000000430700000000000605749300000000000000009999123100000010000000000000BRLANDACNOR9103
012024072402VVEO3       010VIVEO       ON      NM   R$  000000000023200000000002370000000000223000000000022900000000002230000000000223000000000022403671000000000002184700000000000500563300000000000000009999123100000010000000000000BRVVEOACNOR0104
012024072402VULC3       010VULCABRAS   ON      NM   R$  000000000151500000000015220000000001491000000000150500000000015070000000001507000000000151004285000000000000841800000000001267180300000000000000009999123100000010000000000000BRVULCACNOR2159
012024072402VTRU3       010VITRUEDUCA  ON      NM   R$  000000000132000000000013530000000001306000000000132700000000013490000000001316000000000135000222000000000000033800000000000044864100000000000000009999123100000010000000000000BRVTRUACNOR3100
012024072402VSTE3       010VESTE       ON      NM   R$  000000000141100000000014200000000001371000000000139600000000013710000000001370000000000137200014000000000000001700000000000002373400000000000000009999123100000010000000000000BRVSTEACNOR5103
012024072402FIQE3       010UNIFIQUE    ON      NM   R$  000000000034000000000003400000000000336000000000033700000000003370000000000336000000000033701360000000000000777700000000000262401400000000000000009999123100000010000000000000BRFIQEACNOR5107
012024072402FIEI3       010FICA        ON           R$  000000000130000000000013000000000001300000000000130000000000013000000000001200000000000135000003000000000000001000000000000001300000000000000000009999123100000010000000000000BRFIEIACNOR2100
012024072402FHER3       010FER HERINGERON      NM   R$  000000000039700000000004110000000000387000000000040200000000004110000000000400000000000041000025000000000000008600000000000003463300000000000000009999123100000010000000000000BRFHERACNOR5103
012024072402FESA4       010FERBASA     PN      N1   R$  000000000083500000000008370000000000816000000000082400000000008170000000000817000000000081801618000000000000471900000000000389244700000000000000009999123100000010000000000000BRFESAACNPR5084
012024072402FESA3       010FERBASA     ON      N1   R$  000000000130100000000013010000000001301000000000130100000000013010000000001301000000000132000002000000000000000200000000000000260200000000000000009999123100000010000000000000BRFESAACNOR8188
012024072402ELET6       010ELETROBRAS  PNB     N1   R$  000000000419800000000041980000000004130000000000416200000000041700000000004166000000000417004832000000000000946200000000003938969200000000000000009999123100000010000000000000BRELETACNPB7077
012024072402ELET3       010ELETROBRAS  ON      N1   R$  000000000371300000000037590000000003681000000000372600000000037300000000003730000000000373319634000000000006302400000000023485613000000000000000009999123100000010000000000000BRELETACNOR6160
012024072402EKTR4       010ELEKTRO     PN           R$  000000000423000000000046520000000004197000000000455400000000045670000000004512000000000457800090000000000000022600000000000102922800000000000000009999123100000010000000000000BREKTRACNPR7163
012024072402EGIE3       010ENGIE BRASILON      NM   R$  000000000453300000000045430000000004434000000000447200000000044340000000004431000000000443505928000000000001270400000000005681746900000000000000009999123100000010000000000000BREGIEACNOR9126
012024072402MRVE3       010MRV         ON      NM   R$  000000000066500000000006670000000000650000000000065700000000006600000000000660000000000066109297000000000009545500000000006272936200000000000000009999123100000010000000000000BRMRVEACNOR2127
012024072402MRFG3       010MARFRIG     ON      NM   R$  000000000110000000000011160000000001095000000000110400000000011020000000001101000000000110514153000000000004117800000000004548250400000000000000009999123100000010000000000000BRMRFGACNOR0116
012024072402JHSF3       010JHSF PART   ON      NM   R$  000000000040700000000004080000000000396000000000039900000000003990000000000398000000000040105236000000000003075600000000001227846900000000000000009999123100000010000000000000BRJHSFACNOR2137
012024072402JBSS3       010JBS         ON      NM   R$  000000000304900000000031220000000003034000000000309000000000030870000000003086000000000309014890000000000003975500000000012287065800000000000000009999123100000010000000000000BRJBSSACNOR8121
012024072402JALL3       010JALLESMACHADON      NM   R$  000000000071100000000007150000000000686000000000069600000000006860000000000686000000000068701758000000000000634700000000000441760700000000000000009999123100000010000000000000BRJALLACNOR0105
012024072402GOAU4       010GERDAU MET  PN      N1   R$  000000000105700000000010610000000001036000000000104600000000010470000000001046000000000104808916000000000005514700000000005768493700000000000000009999123100000010000000000000BRGOAUACNPR8268
012024072402GOAU3       010GERDAU MET  ON      N1   R$  000000000108400000000010840000000001055000000000106200000000010580000000001058000000000106400257000000000000075600000000000080345400000000000000009999123100000010000000000000BRGOAUACNOR1267
012024072402GMAT3       010GRUPO MATEUSON      NM   R$  000000000071800000000007240000000000702000000000071100000000007040000000000703000000000070404466000000000002935600000000002087622100000000000000009999123100000010000000000000BRGMATACNOR7102
012024072402POSI3       010POSITIVO TECON      NM   R$  000000000073500000000007360000000000716000000000072300000000007180000000000718000000000071904160000000000001188500000000000860138200000000000000009999123100000010000000000000BRPOSIACNOR9116
012024072402PORT3       010WILSON SONS ON  ED  NM   R$  000000000160100000000016100000000001597000000000160200000000016010000000001601000000000160500892000000000000205700000000000329637200000000000000009999123100000010000000000000BRPORTACNOR8109
012024072402POMO4       010MARCOPOLO   PN      N2   R$  000000000064500000000006450000000000629000000000063400000000006320000000000631000000000063305429000000000002532400000000001606614300000000000000009999123100000010000000000000BRPOMOACNPR7098
012024072402POMO3       010MARCOPOLO   ON      N2   R$  000000000049800000000004980000000000490000000000049200000000004900000000000490000000000049300472000000000000076000000000000037455200000000000000009999123100000010000000000000BRPOMOACNOR0098
012024072402PNVL3       010DIMED       ON      NM   R$  000000000100500000000010050000000000977000000000098600000000009850000000000985000000000098801727000000000000419800000000000414280000000000000000009999123100000010000000000000BRPNVLACNOR9207
012024072402PLPL3       010PLANOEPLANO ON      NM   R$  000000000112300000000011500000000001117000000000113500000000011380000000001138000000000114003020000000000000790800000000000898317100000000000000009999123100000010000000000000BRPLPLACNOR5104
012024072402PLAS3       010PLASCAR PARTON           R$  000000000052000000000005200000000000520000000000051900000000005200000000000515000000000059800005000000000000002300000000000001193800000000000000009999123100000010000000000000BRPLASACNOR2106
012024072402PINE4       010PINE        PN      N2   R$  000000000041500000000004230000000000412000000000041700000000004200000000000417000000000042000348000000000000114200000000000047638300000000000000009999123100000010000000000000BRPINEACNPR8150
012024072402MDIA3       010M.DIASBRANCOON      NM   R$  000000000285700000000028570000000002795000000000282600000000028170000000002817000000000283302110000000000000453800000000001282621200000000000000009999123100000010000000000000BRMDIAACNOR7135
012024072402MBLY3       010MOBLY       ON      NM   R$  000000000025900000000002640000000000252000000000025900000000002640000000000264000000000026500495000000000000425600000000000110576400000000000000009999123100000010000000000000BRMBLYACNOR5100
012024072402MATD3       010MATER DEI   ON      NM   R$  000000000046400000000004690000000000452000000000045800000000004600000000000459000000000046002785000000000001254000000000000574486700000000000000009999123100000010000000000000BRMATDACNOR4104
012024072402IRBR3       010IRBBRASIL REON      NM   R$  000000000298100000000029950000000002872000000000290700000000028840000000002881000000000288508322000000000002021000000000005875746500000000000000009999123100000010000000000000BRIRBRACNOR4111
012024072402CYRE3       010CYRELA REALTON      NM   R$  000000000201500000000020150000000001962000000000197500000000019790000000001978000000000197911168000000000003559900000000007034035000000000000000009999123100000010000000000000BRCYREACNOR7140
012024072402CBAV3       010CBA         ON      NM   R$  000000000056900000000005700000000000520000000000053100000000005220000000000521000000000052214287000000000009163600000000004871834400000000000000009999123100000010000000000000BRCBAVACNOR5104
012024072402CASH3       010MELIUZ      ON      NM   R$  000000000058700000000005870000000000577000000000058100000000005770000000000577000000000057801409000000000000589200000000000342444700000000000000009999123100000010000000000000BRCASHACNOR8106
012024072402CAML3       010CAMIL       ON      NM   R$  000000000088100000000008850000000000872000000000087600000000008730000000000872000000000087301428000000000000256100000000000224544500000000000000009999123100000010000000000000BRCAMLACNOR3128
012024072402CAMB3       010CAMBUCI     ON           R$  000000000111700000000011250000000001108000000000111400000000011250000000001110000000000112500144000000000000021600000000000024074000000000000000009999123100000010000000000000BRCAMBACNOR4130
012024072402BRSR6       010BANRISUL    PNB     N1   R$  000000000116800000000011780000000001155000000000115900000000011590000000001159000000000116104284000000000000993400000000001151710600000000000000009999123100000010000000000000BRBRSRACNPB4191
012024072402BRSR3       010BANRISUL    ON      N1   R$  000000000124600000000012490000000001204000000000123100000000012040000000001204000000000124600031000000000000004300000000000005295900000000000000009999123100000010000000000000BRBRSRACNOR3188
012024072402BLAU3       010BLAU        ON      NM   R$  000000000113000000000011330000000001103000000000111700000000011060000000001106000000000110900980000000000000140900000000000157440500000000000000009999123100000010000000000000BRBLAUACNOR8114
012024072402HYPE3       010HYPERA      ON      NM   R$  000000000286500000000028750000000002785000000000280600000000028000000000002796000000000280214812000000000008813500000000024731063400000000000000009999123100000010000000000000BRHYPEACNOR0142
012024072408OSXB3       010OSX BRASIL  ON      NM   R$  000000000038100000000003930000000000381000000000038900000000003920000000000383000000000039100005000000000000001400000000000000545300000000000000009999123100000010000000000000BROSXBACNOR8109
012024072408OIBR4       010OI          PN      N1   R$  000000000129500000000012950000000001280000000000129100000000012880000000001272000000000129700012000000000000001400000000000001808200000000000000009999123100000010000000000000BROIBRACNPR8110
012024072408CTSA4       010SANTANENSE  PN           R$  000000000010300000000001190000000000101000000000011200000000001150000000000111000000000011500505000000000000240300000000000027014200000000000000009999123100000010000000000000BRCTSAACNPR0062
012024072408CTSA3       010SANTANENSE  ON           R$  000000000023200000000002530000000000232000000000024200000000002370000000000237000000000025000041000000000000010200000000000002473000000000000000009999123100000010000000000000BRCTSAACNOR3062
012024072408CTNM4       010COTEMINAS   PN           R$  000000000009600000000000960000000000096000000000009600000000000960000000000091000000000009600008000000000000002600000000000000249600000000000000009999123100000010000000000000BRCTNMACNPR6129
012024072402NEOE3       010NEOENERGIA  ON      NM   R$  000000000185900000000019140000000001780000000000181100000000018030000000001803000000000181915669000000000004284100000000007762076500000000000000009999123100000010000000000000BRNEOEACNOR3123
012024072402LREN3       010LOJAS RENNERON      NM   R$  000000000131200000000013170000000001269000000000128700000000012870000000001286000000000128717768000000000013641000000000017566273800000000000000009999123100000010000000000000BRLRENACNOR1221
012024072402LPSB3       010LOPES BRASILON      NM   R$  000000000018500000000001910000000000185000000000018600000000001860000000000185000000000018600096000000000000021300000000000003977900000000000000009999123100000010000000000000BRLPSBACNOR0114
012024072402KRSA3       010KORA SAUDE  ON      NM   R$  000000000007000000000000710000000000069000000000006900000000000710000000000070000000000007100059000000000000087100000000000006096100000000000000009999123100000010000000000000BRKRSAACNOR0100
012024072402DASA3       010DASA        ON      NM   R$  000000000033700000000003380000000000309000000000031900000000003130000000000313000000000031602482000000000001422600000000000454114200000000000000009999123100000010000000000000BRDASAACNOR1122
012024072402CMIG3       010CEMIG       ON      N1   R$  000000000129500000000012950000000001260000000000127300000000012600000000001260000000000127700821000000000000144700000000000184208100000000000000009999123100000010000000000000BRCMIGACNOR6242
012024072402CLSC4       010CELESC      PN      N2   R$  000000000771800000000077180000000007521000000000756300000000075550000000007555000000000757800020000000000000002100000000000015884000000000000000009999123100000010000000000000BRCLSCACNPR3131
012024072402CLSA3       010CLEARSALE   ON      NM   R$  000000000082900000000008510000000000811000000000083800000000008480000000000848000000000084903409000000000001725300000000001446154600000000000000009999123100000010000000000000BRCLSAACNOR0100
012024072402CIEL3       010CIELO       ON      NM   R$  000000000057500000000005760000000000574000000000057400000000005750000000000575000000000057607369000000000022397400000000012864477300000000000000009999123100000010000000000000BRCIELACNOR3157
012024072402CGRA4       010GRAZZIOTIN  PN           R$  000000000256500000000025920000000002565000000000257300000000025680000000002567000000000260900011000000000000001500000000000003860900000000000000009999123100000010000000000000BRCGRAACNPR9083
012024072402CGRA3       010GRAZZIOTIN  ON           R$  000000000259300000000025930000000002579000000000258400000000025900000000002540000000000259000009000000000000000900000000000002325900000000000000009999123100000010000000000000BRCGRAACNOR2083
012024072402CGAS5       010COMGAS      PNA          R$  000000001143000000000114300000000010500000000001085300000000108550000000010850000000001105000069000000000000008100000000000087913900000000000000009999123100000010000000000000BRCGASACNPA3160
012024072402CEED3       010CEEE-D      ON           R$  000000000130000000000013000000000001300000000000130000000000013000000000001100000000000185000002000000000000000200000000000000260000000000000000009999123100000010000000000000BRCEEDACNOR9103
012024072402CEEB3       010COELBA      ON           R$  000000000415000000000043500000000004100000000000414400000000041000000000004050000000000415100007000000000000000900000000000003730000000000000000009999123100000010000000000000BRCEEBACNOR3199
012024072402CEBR6       010CEB         PNB          R$  000000000190900000000019100000000001875000000000187900000000018780000000001875000000000187800049000000000000011100000000000020865900000000000000009999123100000010000000000000BRCEBRACNPB6124
012024072402CEBR5       010CEB         PNA          R$  000000000179300000000018310000000001793000000000180800000000018100000000001778000000000181400005000000000000000500000000000000904000000000000000009999123100000010000000000000BRCEBRACNPA8124
012024072402CEBR3       010CEB         ON           R$  000000000203700000000020380000000001978000000000200500000000019920000000001981000000000199300027000000000000006300000000000012631600000000000000009999123100000010000000000000BRCEBRACNOR5125
012024072402CEAB3       010CEA MODAS   ON      NM   R$  000000000089200000000008930000000000861000000000087300000000008610000000000861000000000086506353000000000003298400000000002880005000000000000000009999123100000010000000000000BRCEABACNOR1102
012024072402CCRO3       010CCR SA      ON      NM   R$  000000000122100000000012460000000001213000000000123500000000012310000000001231000000000123511299000000000004979200000000006149629000000000000000009999123100000010000000000000BRCCROACNOR2145
012024072402CBEE3       010AMPLA ENERG ON           R$  000000000099000000000009900000000000990000000000099000000000009900000000000751000000000105000001000000000000000100000000000000099000000000000000009999123100000010000000000000BRCBEEACNOR3159
012024072402BOBR4       010BOMBRIL     PN           R$  000000000020300000000002060000000000200000000000020100000000002000000000000200000000000020300053000000000000012900000000000002595200000000000000009999123100000010000000000000BRBOBRACNPR3128
012024072402BMOB3       010BEMOBI TECH ON      NM   R$  000000000144600000000014470000000001414000000000143000000000014300000000001430000000000143401005000000000001042700000000001491266300000000000000009999123100000010000000000000BRBMOBACNOR7103
012024072402BMKS3       010BIC MONARK  ON           R$  000000003249900000000325000000000032202000000003249200000000325000000000032300000000003250000028000000000000000162000000000005263850000000000000009999123100000010000000000000BRBMKSACNOR9166
012024072402BMIN4       010MERC INVEST PN           R$  000000000156000000000017990000000001560000000000167500000000017500000000001560000000000174900010000000000000001800000000000003015100000000000000009999123100000010000000000000BRBMINACNPR1176
012024072402BMGB4       010BANCO BMG   PN  EJ  N1   R$  000000000035400000000003540000000000344000000000034800000000003460000000000345000000000034600844000000000000415900000000000144769100000000000000009999123100000010000000000000BRBMGBACNPR0110
012024072402BMEB4       010MERCANTIL   PN      N1   R$  000000000311400000000033480000000003114000000000324100000000031910000000003191000000000320000116000000000000019300000000000062558000000000000000009999123100000010000000000000BRBMEBACNPR5210
012024072402BMEB3       010MERCANTIL   ON      N1   R$  000000000285400000000031870000000002848000000000301000000000031870000000002861000000000349000015000000000000003200000000000009632700000000000000009999123100000010000000000000BRBMEBACNOR8205
012024072402WEGE3       010WEG         ON      NM   R$  000000000469500000000047140000000004641000000000467100000000046650000000004665000000000466615876000000000003907100000000018252491400000000000000009999123100000010000000000000BRWEGEACNOR0223
012024072402BBAS3       010BRASIL      ON      NM   R$  000000000270500000000027080000000002681000000000268900000000026870000000002686000000000268930261000000000009728400000000026162249200000000000000009999123100000010000000000000BRBBASACNOR3324
012024072402BAZA3       010AMAZONIA    ON           R$  000000000930000000000093000000000009200000000000924000000000092310000000009160000000000925000004000000000000000400000000000003696200000000000000009999123100000010000000000000BRBAZAACNOR0179
012024072402BAHI3       010BAHEMA      ON      MA   R$  000000000063600000000006360000000000636000000000063600000000006360000000000620000000000067200002000000000000001000000000000000636000000000000000009999123100000010000000000000BRBAHIACNOR1074
012024072402TUPY3       010TUPY        ON      NM   R$  000000000257900000000025800000000002529000000000254800000000025400000000002529000000000254102285000000000000353200000000000899981600000000000000009999123100000010000000000000BRTUPYACNOR1184
012024072402TTEN3       0103TENTOS     ON      NM   R$  000000000106800000000010790000000001055000000000107100000000010730000000001073000000000108003462000000000000525800000000000563425000000000000000009999123100000010000000000000BRTTENACNOR0103
012024072402TRPL4       010TRAN PAULISTPN      N1   R$  000000000246000000000024800000000002435000000000245400000000024550000000002453000000000245519162000000000012162900000000029849164400000000000000009999123100000010000000000000BRTRPLACNPR1185
012024072402TRPL3       010TRAN PAULISTON      N1   R$  000000000319500000000032220000000003195000000000320800000000032100000000003191000000000321000020000000000000002300000000000007378400000000000000009999123100000010000000000000BRTRPLACNOR4185
012024072402TRIS3       010TRISUL      ON      NM   R$  000000000050800000000005110000000000504000000000050700000000005070000000000505000000000050700927000000000000560800000000000284742600000000000000009999123100000010000000000000BRTRISACNOR4118
012024072402TRAD3       010TC          ON  EG  NM   R$  000000000039500000000004010000000000371000000000037900000000003710000000000371000000000037500136000000000000074400000000000028201500000000000000009999123100000010000000000000BRTRADACNOR3102
012024072402TPIS3       010TRIUNFO PARTON      NM   R$  000000000037800000000003800000000000376000000000037700000000003770000000000376000000000037800039000000000000015400000000000005819800000000000000009999123100000010000000000000BRTPISACNOR8118
012024072402ITUB4       010ITAUUNIBANCOPN      N1   R$  000000000343000000000034330000000003405000000000342000000000034140000000003413000000000341927559000000000015775600000000053957274900000000000000009999123100000010000000000000BRITUBACNPR1338
012024072402ITUB3       010ITAUUNIBANCOON      N1   R$  000000000292400000000029440000000002914000000000293200000000029300000000002927000000000293000818000000000000215400000000000631592400000000000000009999123100000010000000000000BRITUBACNOR4338
012024072402GGBR4       010GERDAU      PN      N1   R$  000000000180400000000018130000000001761000000000178100000000017950000000001795000000000179624155000000000015129600000000026948191900000000000000009999123100000010000000000000BRGGBRACNPR8192
012024072402GGBR3       010GERDAU      ON      N1   R$  000000000160400000000016040000000001565000000000158000000000015730000000001573000000000158300307000000000000042200000000000066681500000000000000009999123100000010000000000000BRGGBRACNOR1192
012024072402GFSA3       010GAFISA      ON      NM   R$  000000000034000000000003440000000000335000000000033900000000003400000000000339000000000034102205000000000002393300000000000812038300000000000000009999123100000010000000000000BRGFSAACNOR3124
012024072402GEPA4       010GER PARANAP PN           R$  000000000260000000000026000000000002590000000000259200000000025900000000002590000000000264800002000000000000000500000000000001296000000000000000009999123100000010000000000000BRGEPAACNPR9160
012024072402GEPA3       010GER PARANAP ON           R$  000000000264900000000026490000000002649000000000264900000000026490000000002550000000000263900001000000000000000100000000000000264900000000000000009999123100000010000000000000BRGEPAACNOR2153
012024072402FRIO3       010METALFRIO   ON      NM   R$  000000001800000000000180000000000018000000000001800000000000180000000000016000000000001850000002000000000000000200000000000003600000000000000000009999123100000010000000000000BRFRIOACNOR2111
012024072402FRAS3       010FRAS-LE     ON  EJ  N1   R$  000000000200000000000020000000000001954000000000197000000000019700000000001965000000000197101783000000000000404100000000000796117300000000000000009999123100000010000000000000BRFRASACNOR0160
012024072402FLRY3       010FLEURY      ON      NM   R$  000000000154600000000015490000000001525000000000154100000000015430000000001542000000000154310219000000000001993500000000003073963400000000000000009999123100000010000000000000BRFLRYACNOR5138
012024072402BBSE3       010BBSEGURIDADEON      NM   R$  000000000341600000000034380000000003395000000000342200000000034200000000003420000000000342512082000000000002886500000000009878076800000000000000009999123100000010000000000000BRBBSEACNOR5124
012024072402ATOM3       010ATOMPAR     ON           R$  000000000020100000000002020000000000198000000000020000000000002010000000000199000000000020100019000000000000003800000000000000760500000000000000009999123100000010000000000000BRATOMACNOR1106
012024072402TOTS3       010TOTVS       ON      NM   R$  000000000280100000000028220000000002782000000000279900000000027830000000002782000000000278312279000000000001803900000000005050270500000000000000009999123100000010000000000000BRTOTSACNOR8144
012024072402TIMS3       010TIM         ON      NM   R$  000000000166000000000016830000000001656000000000166800000000016600000000001660000000000167413111000000000006668200000000011123444100000000000000009999123100000010000000000000BRTIMSACNOR5117
012024072402TGMA3       010TEGMA       ON      NM   R$  000000000248000000000024880000000002454000000000246700000000024620000000002449000000000246200578000000000000093200000000000230006400000000000000009999123100000010000000000000BRTGMAACNOR7144
012024072402TFCO4       010TRACK FIELD PN      N2   R$  000000000111600000000011160000000001102000000000110800000000011100000000001110000000000111100130000000000000034700000000000038460900000000000000009999123100000010000000000000BRTFCOACNPR8114
012024072402SANB4       010SANTANDER BRPN  EJ       R$  000000000151900000000015300000000001478000000000149700000000014940000000001489000000000149500776000000000000119500000000000178996700000000000000009999123100000010000000000000BRSANBACNPR5172
012024072402SANB3       010SANTANDER BRON  EJ       R$  000000000134800000000013800000000001333000000000135200000000013500000000001340000000000135200717000000000000114700000000000155097800000000000000009999123100000010000000000000BRSANBACNOR8172
012024072402SANB11      010SANTANDER BRUNT EJ       R$  000000000287300000000029170000000002814000000000284600000000028410000000002841000000000284516317000000000006779000000000019293252400000000000000009999123100000010000000000000BRSANBCDAM13165
012024072402PTNT4       010PETTENATI   PN           R$  000000000066000000000006600000000000640000000000064700000000006500000000000650000000000066000021000000000000006800000000000004404600000000000000009999123100000010000000000000BRPTNTACNPR3047
012024072402PTNT3       010PETTENATI   ON           R$  000000000097100000000009890000000000971000000000098000000000009890000000000956000000000098900002000000000000000200000000000000196000000000000000009999123100000010000000000000BRPTNTACNOR6042
012024072402PTBL3       010PORTOBELLO  ON      NM   R$  000000000048000000000004960000000000477000000000048400000000004770000000000477000000000047902286000000000000578000000000000280324200000000000000009999123100000010000000000000BRPTBLACNOR8132
012024072402RAIZ4       010RAIZEN      PN      N2   R$  000000000030700000000003080000000000302000000000030300000000003030000000000302000000000030416480000000000014536100000000004418418400000000000000009999123100000010000000000000BRRAIZACNPR6110
012024072402RAIL3       010RUMO S.A.   ON      NM   R$  000000000221800000000022310000000002197000000000220900000000022100000000002210000000000221317292000000000004779700000000010562714800000000000000009999123100000010000000000000BRRAILACNOR9105
012024072402ORVR3       010ORIZON      ON      NM   R$  000000000429500000000042950000000004227000000000425300000000042640000000004264000000000426501570000000000000879100000000003739629100000000000000009999123100000010000000000000BRORVRACNOR0101
012024072402OPCT3       010OCEANPACT   ON      NM   R$  000000000062700000000006710000000000626000000000065700000000006660000000000663000000000066603243000000000001024300000000000673314100000000000000009999123100000010000000000000BROPCTACNOR0100
012024072402ONCO3       010ONCOCLINICASON      NM   R$  000000000071200000000007150000000000688000000000070600000000007040000000000703000000000070805751000000000003510800000000002481010000000000000000009999123100000010000000000000BRONCOACNOR6101
012024072402ENAT3       010ENAUTA PART ON      NM   R$  000000000213700000000021420000000002091000000000211500000000021100000000002110000000000211210404000000000003732500000000007895679800000000000000009999123100000010000000000000BRENATACNOR0104
012024072402EMBR3       010EMBRAER     ON      NM   R$  000000000418700000000042080000000004066000000000412300000000040960000000004095000000000409728589000000000007541900000000031098612800000000000000009999123100000010000000000000BREMBRACNOR4191
012024072402EMAE4       010EMAE        PN           R$  000000000465000000000047000000000004600000000000463200000000046000000000004598000000000460000013000000000000001400000000000006485100000000000000009999123100000010000000000000BREMAEACNPR1125
012024072402CXSE3       010CAIXA SEGURION      NM   R$  000000000145000000000014670000000001441000000000145400000000014550000000001451000000000145506487000000000001944600000000002827457900000000000000009999123100000010000000000000BRCXSEACNOR7106
012024072402CVCB3       010CVC BRASIL  ON      NM   R$  000000000018400000000001840000000000180000000000018100000000001800000000000180000000000018105248000000000008395000000000001522215900000000000000009999123100000010000000000000BRCVCBACNOR1116
012024072402CURY3       010CURY S/A    ON      NM   R$  000000000216800000000021710000000002124000000000215600000000021590000000002157000000000216504738000000000000743600000000001603546900000000000000009999123100000010000000000000BRCURYACNOR3109
012024072402BEES4       010BANESTES    PN           R$  000000000097500000000009750000000000961000000000097100000000009730000000000971000000000097300011000000000000001200000000000001165600000000000000009999123100000010000000000000BRBEESACNPR6318
012024072402BEES3       010BANESTES    ON           R$  000000000091000000000009100000000000905000000000090800000000009060000000000905000000000090900040000000000000007900000000000007175200000000000000009999123100000010000000000000BRBEESACNOR9393
012024072402BEEF3       010MINERVA     ON      NM   R$  000000000063300000000006380000000000624000000000062800000000006270000000000627000000000062806119000000000008459300000000005315668200000000000000009999123100000010000000000000BRBEEFACNOR6116
012024072402AZUL4       010AZUL        PN      N2   R$  000000000080400000000008130000000000778000000000079400000000007820000000000782000000000078310629000000000011889500000000009443301600000000000000009999123100000010000000000000BRAZULACNPR4102
012024072402AZEV4       010AZEVEDO     PN           R$  000000000016500000000001660000000000151000000000015500000000001530000000000152000000000015302489000000000008024300000000001249392300000000000000009999123100000010000000000000BRAZEVACNPR7121
012024072402AZEV3       010AZEVEDO     ON           R$  000000000016400000000001660000000000152000000000015700000000001550000000000154000000000015500747000000000000946300000000000148661800000000000000009999123100000010000000000000BRAZEVACNOR0121
012024072402AURE3       010AUREN       ON      NM   R$  000000000122800000000012320000000001213000000000121900000000012160000000001216000000000121703951000000000001846100000000002251894800000000000000009999123100000010000000000000BRAUREACNOR9104
012024072402RDOR3       010REDE D OR   ON      NM   R$  000000000274800000000027850000000002732000000000276100000000027500000000002749000000000275015036000000000003675800000000010150511300000000000000009999123100000010000000000000BRRDORACNOR8113
012024072402RDNI3       010RNI         ON      NM   R$  000000000030700000000003140000000000307000000000031100000000003100000000000310000000000031300012000000000000002600000000000000808800000000000000009999123100000010000000000000BRRDNIACNOR9116
012024072402RCSL4       010RECRUSUL    PN           R$  000000000010300000000001040000000000101000000000010200000000001030000000000102000000000010300605000000000000611600000000000062495000000000000000009999123100000010000000000000BRRCSLACNPR1134
012024072402RCSL3       010RECRUSUL    ON           R$  000000000027900000000002920000000000276000000000028200000000002840000000000281000000000028400508000000000000204900000000000057873500000000000000009999123100000010000000000000BRRCSLACNOR4134
012024072402CTKA4       010KARSTEN     PN           R$  000000000200000000000020000000000001900000000000197700000000019000000000001701000000000195000010000000000000006000000000000011865700000000000000009999123100000010000000000000BRCTKAACNPR7043
012024072402CTKA3       010KARSTEN     ON           R$  000000000200000000000020000000000002000000000000200000000000020000000000001000000000000216000002000000000000000300000000000000600000000000000000009999123100000010000000000000BRCTKAACNOR0043
012024072402CSUD3       010CSU DIGITAL ON      NM   R$  000000000192000000000019600000000001907000000000192700000000019400000000001925000000000194000159000000000000025600000000000049349200000000000000009999123100000010000000000000BRCSUDACNOR5110
012024072402CSRN6       010COSERN      PNB          R$  000000000234000000000023850000000002340000000000237100000000023850000000002208000000000238500007000000000000000900000000000002134600000000000000009999123100000010000000000000BRCSRNACNPB1194
012024072402CSRN5       010COSERN      PNA          R$  000000000227800000000023000000000002278000000000228300000000023000000000002300000000000240000003000000000000000400000000000000913400000000000000009999123100000010000000000000BRCSRNACNPA3193
012024072402CSRN3       010COSERN      ON           R$  000000000210000000000023720000000002100000000000226100000000023290000000002230000000000234000062000000000000012100000000000027358100000000000000009999123100000010000000000000BRCSRNACNOR0193
