00COTAHIST.2024BOVESPA 20240814                                                                                                                                                                                                                      
012024081402BGIP3       010BANESE      ON           R$  000000000243500000000024500000000002435000000000244200000000024500000000002350000000000280000002000000000000000200000000000000488500000000000000009999123100000010000000000000BRBGIPACNOR1208
012024081402BGIP4       010BANESE      PN           R$  000000000235300000000024000000000002353000000000237400000000024000000000002301000000000244900003000000000000000300000000000000712300000000000000009999123100000010000000000000BRBGIPACNPR8208
012024081402BRSR3       010BANRISUL    ON      N1   R$  000000000127500000000013000000000001229000000000127100000000012810000000001258000000000127900086000000000000014800000000000018823400000000000000009999123100000010000000000000BRBRSRACNOR3188
012024081402BRSR5       010BANRISUL    PNA     N1   R$  000000000170000000000017000000000001700000000000170000000000017000000000001505000000000176600001000000000000000100000000000000170000000000000000009999123100000010000000000000BRBRSRACNPA6192
012024081402BRSR6       010BANRISUL    PNB     N1   R$  000000000119100000000012540000000001190000000000123400000000012360000000001235000000000123608308000000000002374400000000002932223400000000000000009999123100000010000000000000BRBRSRACNPB4191
012024081402BSLI3       010BRB BANCO   ON           R$  000000000096300000000010950000000000963000000000105900000000010930000000001044000000000109200006000000000000000800000000000000847200000000000000009999123100000010000000000000BRBSLIACNOR5194
012024081402BSLI4       010BRB BANCO   PN           R$  000000000099700000000009970000000000997000000000099700000000009970000000000965000000000099700001000000000000000200000000000000199400000000000000009999123100000010000000000000BRBSLIACNPR2194
012024081402NEOE3       010NEOENERGIA  ON      NM   R$  000000000189200000000019470000000001882000000000192000000000019380000000001938000000000194104275000000000000987200000000001896406000000000000000009999123100000010000000000000BRNEOEACNOR3123
012024081402NGRD3       010NEOGRID     ON      NM   R$  000000000011900000000001210000000000118000000000011900000000001210000000000119000000000012100394000000000000436000000000000052238000000000000000009999123100000010000000000000BRNGRDACNOR3104
012024081402CAMB3       010CAMBUCI     ON  EDJ      R$  000000000126000000000012880000000001194000000000122000000000012250000000001203000000000122700412000000000000058000000000000070767600000000000000009999123100000010000000000000BRCAMBACNOR4131
012024081402CAML3       010CAMIL       ON      NM   R$  000000000098300000000010010000000000963000000000099100000000009990000000000991000000000099903626000000000000982000000000000973950100000000000000009999123100000010000000000000BRCAMLACNOR3128
012024081402CASH3       010MELIUZ      ON      NM   R$  000000000063000000000006400000000000612000000000062400000000006400000000000635000000000064002860000000000001282500000000000800585600000000000000009999123100000010000000000000BRCASHACNOR8106
012024081402CBAV3       010CBA         ON      NM   R$  000000000048800000000004890000000000459000000000047000000000004620000000000462000000000046305241000000000002928000000000001377067300000000000000009999123100000010000000000000BRCBAVACNOR5104
012024081402CCRO3       010CCR SA      ON      NM   R$  000000000133200000000013610000000001332000000000135200000000013520000000001351000000000135412041000000000004916900000000006649254100000000000000009999123100000010000000000000BRCCROACNOR2145
012024081402CEAB3       010CEA MODAS   ON      NM   R$  000000000089500000000009100000000000884000000000089400000000008840000000000883000000000088905744000000000002549200000000002281189300000000000000009999123100000010000000000000BRCEABACNOR1102
012024081402COCE3       010COELCE      ON           R$  000000000330000000000033000000000003300000000000330000000000033000000000003195000000000360000001000000000000000100000000000000330000000000000000009999123100000010000000000000BRCOCEACNOR0146
012024081402COCE5       010COELCE      PNA          R$  000000000312300000000031770000000003123000000000315300000000031500000000003150000000000317500052000000000000009700000000000030588600000000000000009999123100000010000000000000BRCOCEACNPA3147
012024081402COGN3       010COGNA ON    ON      NM   R$  000000000014300000000001450000000000139000000000014100000000001390000000000139000000000014018266000000000064946600000000009202473200000000000000009999123100000010000000000000BRCOGNACNOR2104
012024081402ENEV3       010ENEVA       ON      NM   R$  000000000131500000000013510000000001293000000000133800000000013470000000001346000000000134730204000000000019187700000000025688553900000000000000009999123100000010000000000000BRENEVACNOR8106
012024081402IBOV11      010IBOVESPA    IBO          R$  000001335100000000133510000000013351000000001335100000000133510000000000000000000000000000000442000000000000100662000001343938362000000000000000009999123100000010000000000000BRIBOVINDM18012
012024081402ITUB3       010ITAUUNIBANCOON      N1   R$  000000000306400000000031500000000003058000000000312600000000031310000000003131000000000314502074000000000000518300000000001620603000000000000000009999123100000010000000000000BRITUBACNOR4339
012024081402ITUB4       010ITAUUNIBANCOPN      N1   R$  000000000355900000000036780000000003559000000000364400000000036470000000003647000000000364972859000000000054240500000000197655968400000000000000009999123100000010000000000000BRITUBACNPR1339
012024081402PETZ3       010PETZ        ON      NM   R$  000000000038000000000003860000000000374000000000037900000000003820000000000382000000000038314271000000000009159200000000003475117100000000000000009999123100000010000000000000BRPETZACNOR2110
012024081402PRNR3       010PRINER      ON      NM   R$  000000000114100000000012000000000001141000000000118000000000011910000000001180000000000119102782000000000000907500000000001071719900000000000000009999123100000010000000000000BRPRNRACNOR4109
012024081402PSSA3       010PORTO SEGUROON      NM   R$  000000000328900000000033090000000003257000000000328700000000032860000000003284000000000328608495000000000001718400000000005649124600000000000000009999123100000010000000000000BRPSSAACNOR7155
012024081402PTBL3       010PORTOBELLO  ON      NM   R$  000000000049000000000004940000000000468000000000047500000000004680000000000467000000000046800936000000000000407700000000000193895500000000000000009999123100000010000000000000BRPTBLACNOR8132
012024081402PTNT3       010PETTENATI   ON           R$  000000000092300000000009230000000000897000000000090600000000009020000000000872000000000089900009000000000000000900000000000000815700000000000000009999123100000010000000000000BRPTNTACNOR6042
012024081402PTNT4       010PETTENATI   PN           R$  000000000060000000000006050000000000596000000000060000000000006030000000000595000000000060400022000000000000006400000000000003841400000000000000009999123100000010000000000000BRPTNTACNPR3047
012024081402QUAL3       010QUALICORP   ON      NM   R$  000000000016300000000001660000000000157000000000016000000000001580000000000157000000000015802044000000000002184000000000000350847500000000000000009999123100000010000000000000BRQUALACNOR6120
012024081402KLBN11      010KLABIN S/A  UNT ED  N2   R$  000000000207900000000021160000000002070000000000210000000000020880000000002088000000000208917380000000000004949600000000010394986400000000000000009999123100000010000000000000BRKLBNCDAM18143
012024081402KLBN3       010KLABIN S/A  ON  ED  N2   R$  000000000041900000000004260000000000416000000000042200000000004200000000000420000000000042100791000000000000367500000000000155206700000000000000009999123100000010000000000000BRKLBNACNOR2171
012024081402KLBN4       010KLABIN S/A  PN  ED  N2   R$  000000000041600000000004230000000000414000000000041900000000004180000000000418000000000041901901000000000001589500000000000666939600000000000000009999123100000010000000000000BRKLBNACNPR9171
012024081402ASAI3       010ASSAI       ON      NM   R$  000000000104500000000010770000000001039000000000106200000000010670000000001067000000000106819002000000000011245500000000011945404200000000000000009999123100000010000000000000BRASAIACNOR0106
012024081402ATOM3       010ATOMPAR     ON           R$  000000000019300000000002000000000000193000000000019800000000001990000000000196000000000019900033000000000000008500000000000001687400000000000000009999123100000010000000000000BRATOMACNOR1106
012024081402AURE3       010AUREN       ON      NM   R$  000000000116200000000011700000000001156000000000116300000000011640000000001164000000000116712263000000000005347400000000006223086400000000000000009999123100000010000000000000BRAUREACNOR9104
012024081402UCAS3       010UNICASA     ON      NM   R$  000000000022400000000002280000000000222000000000022500000000002280000000000224000000000022800121000000000000036100000000000008149200000000000000009999123100000010000000000000BRUCASACNOR1113
012024081402UGPA3       010ULTRAPAR    ON      NM   R$  000000000237500000000024040000000002360000000000237400000000023600000000002356000000000236020114000000000005771200000000013704746900000000000000009999123100000010000000000000BRUGPAACNOR8155
012024081402UNIP3       010UNIPAR      ON           R$  000000000493000000000049300000000004891000000000490700000000049000000000004900000000000491000045000000000000006800000000000033372400000000000000009999123100000010000000000000BRUNIPACNOR7206
012024081402UNIP5       010UNIPAR      PNA          R$  000000000499000000000050210000000004920000000000496200000000049500000000004920000000000495000010000000000000001300000000000006450700000000000000009999123100000010000000000000BRUNIPACNPA0208
012024081402UNIP6       010UNIPAR      PNB          R$  000000000497200000000050040000000004895000000000492300000000049060000000004902000000000490601493000000000000239100000000001177174800000000000000009999123100000010000000000000BRUNIPACNPB8206
012024081402WHRL3       010WHIRLPOOL   ON           R$  000000000042300000000004230000000000410000000000041600000000004190000000000422000000000042900011000000000000002200000000000000915800000000000000009999123100000010000000000000BRWHRLACNOR5128
012024081402WHRL4       010WHIRLPOOL   PN           R$  000000000044500000000004470000000000444000000000044600000000004460000000000445000000000044700012000000000000002700000000000001205200000000000000009999123100000010000000000000BRWHRLACNPR2128
012024081402WIZC3       010WIZ CO      ON      NM   R$  000000000059700000000006000000000000592000000000059600000000006000000000000597000000000060001405000000000000383300000000000228660600000000000000009999123100000010000000000000BRWIZCACNOR5102
012024081402WLMM4       010WLM IND COM PN  EJ       R$  000000000321800000000032180000000003109000000000316100000000032000000000002812000000000321900013000000000000001400000000000004425800000000000000009999123100000010000000000000BRWLMMACNPR3119
012024081402HYPE3       010HYPERA      ON      NM   R$  000000000310000000000031800000000003064000000000313200000000031650000000003162000000000316517039000000000003856200000000012079769600000000000000009999123100000010000000000000BRHYPEACNOR0143
012024081402ALLD3       010ALLIED      ON      NM   R$  000000000074800000000007680000000000740000000000075700000000007560000000000756000000000075800200000000000000058000000000000043919200000000000000009999123100000010000000000000BRALLDACNOR3106
012024081402ALOS3       010ALLOS       ON      NM   R$  000000000236100000000023930000000002326000000000236800000000023650000000002363000000000236723617000000000006399600000000015154997900000000000000009999123100000010000000000000BRALOSACNOR5101
012024081402ALPA3       010ALPARGATAS  ON      N1   R$  000000000078600000000007860000000000766000000000078300000000007860000000000769000000000078600017000000000000009100000000000007130300000000000000009999123100000010000000000000BRALPAACNOR0231
012024081402ALPA4       010ALPARGATAS  PN      N1   R$  000000000081100000000008170000000000786000000000079400000000007860000000000785000000000079012879000000000007819200000000006213875600000000000000009999123100000010000000000000BRALPAACNPR7232
012024081402ALPK3       010ESTAPAR     ON      NM   R$  000000000039000000000003940000000000387000000000039000000000003940000000000390000000000039400229000000000000076200000000000029793800000000000000009999123100000010000000000000BRALPKACNOR9101
012024081402ALUP11      010ALUPAR      UNT     N2   R$  000000000320200000000032880000000003194000000000325600000000032850000000003268000000000328508019000000000001654100000000005387203300000000000000009999123100000010000000000000BRALUPCDAM15119
012024081402ALUP3       010ALUPAR      ON      N2   R$  000000000110000000000011360000000001098000000000111600000000011300000000001104000000000113600084000000000000010600000000000011840000000000000000009999123100000010000000000000BRALUPACNOR8119
012024081402ALUP4       010ALUPAR      PN      N2   R$  000000000105000000000010750000000001048000000000106300000000010740000000001057000000000107500118000000000000026000000000000027650000000000000000009999123100000010000000000000BRALUPACNPR5119
012024081402BALM4       010BAUMER      PN           R$  000000000104900000000010490000000001049000000000104900000000010490000000001000000000000104900002000000000000000400000000000000419600000000000000009999123100000010000000000000BRBALMACNPR2056
012024081402BAZA3       010AMAZONIA    ON           R$  000000000952200000000099000000000009489000000000965300000000096010000000009600000000000985900040000000000000005200000000000050199100000000000000009999123100000010000000000000BRBAZAACNOR0179
012024081402BBAS3       010BRASIL      ON      NM   R$  000000000274700000000028150000000002740000000000279100000000027930000000002793000000000279555058000000000019387500000000054112727800000000000000009999123100000010000000000000BRBBASACNOR3324
012024081402EGIE3       010ENGIE BRASILON      NM   R$  000000000457900000000046490000000004573000000000462300000000046320000000004632000000000464008613000000000001355600000000006267802800000000000000009999123100000010000000000000BREGIEACNOR9126
012024081402EKTR4       010ELEKTRO     PN           R$  000000000415700000000042260000000004154000000000418000000000041800000000004100000000000418000007000000000000001400000000000005852500000000000000009999123100000010000000000000BREKTRACNPR7164
012024081402ELET3       010ELETROBRAS  ON      N1   R$  000000000396100000000040660000000003957000000000402800000000040150000000004015000000000403022798000000000006819600000000027473797900000000000000009999123100000010000000000000BRELETACNOR6160
012024081402ELET6       010ELETROBRAS  PNB     N1   R$  000000000442000000000045310000000004405000000000447800000000044640000000004463000000000448108435000000000001612000000000007219866800000000000000009999123100000010000000000000BRELETACNPB7077
012024081402JSLG3       010JSL         ON      NM   R$  000000000090300000000009350000000000896000000000092100000000009250000000000921000000000092501710000000000000376900000000000347470600000000000000009999123100000010000000000000BRJSLGACNOR2121
012024081402ESTR4       010ESTRELA     PN           R$  000000000020600000000002070000000000206000000000020600000000002070000000000207000000000021300002000000000000000200000000000000041300000000000000009999123100000010000000000000BRESTRACNPR0144
012024081402ETER3       010ETERNIT     ON  EJ  NM   R$  000000000059300000000006230000000000587000000000060900000000006060000000000606000000000060802146000000000000974300000000000593374900000000000000009999123100000010000000000000BRETERACNOR3244
012024081402EUCA3       010EUCATEX     ON      N1   R$  000000000160400000000016700000000001604000000000165300000000016700000000001593000000000169900007000000000000000900000000000001488300000000000000009999123100000010000000000000BREUCAACNOR1157
012024081402EUCA4       010EUCATEX     PN      N1   R$  000000000151000000000015260000000001493000000000151100000000015260000000001526000000000152800209000000000000046400000000000070153600000000000000009999123100000010000000000000BREUCAACNPR8044
012024081402EVEN3       010EVEN        ON      NM   R$  000000000067400000000006740000000000643000000000065400000000006470000000000644000000000064703696000000000000881900000000000577033300000000000000009999123100000010000000000000BREVENACNOR8119
012024081402EZTC3       010EZTEC       ON  ED  NM   R$  000000000138600000000014080000000001367000000000139200000000013970000000001395000000000140005704000000000001414900000000001969572800000000000000009999123100000010000000000000BREZTCACNOR0126
012024081402HBOR3       010HELBOR      ON      NM   R$  000000000023000000000002310000000000217000000000022000000000002170000000000217000000000021800717000000000001403800000000000309622200000000000000009999123100000010000000000000BRHBORACNOR3118
012024081402HBRE3       010HBR REALTY  ON      NM   R$  000000000053000000000005340000000000518000000000052400000000005200000000000517000000000052000588000000000000298600000000000156655300000000000000009999123100000010000000000000BRHBREACNOR4100
012024081402HBSA3       010HIDROVIAS   ON      NM   R$  000000000035500000000003700000000000353000000000036300000000003700000000000361000000000037006980000000000002480600000000000901642400000000000000009999123100000010000000000000BRHBSAACNOR0100
012024081402HBTS5       010HABITASUL   PNA          R$  000000000402000000000040200000000004020000000000402000000000040200000000003895000000000425100001000000000000000100000000000000402000000000000000009999123100000010000000000000BRHBTSACNPA3128
012024081402HETA4       010HERCULES    PN           R$  000000000052100000000005210000000000521000000000052100000000005210000000000501000000000053900001000000000000000100000000000000052100000000000000009999123100000010000000000000BRHETAACNPR9136
012024081402BPAN4       010BANCO PAN   PN      N1   R$  000000000098500000000009870000000000970000000000097800000000009760000000000973000000000097604229000000000001454200000000001423223600000000000000009999123100000010000000000000BRBPANACNPR1115
012024081402BRAP3       010BRADESPAR   ON      N1   R$  000000000174100000000017570000000001719000000000172900000000017570000000001730000000000175800711000000000000105800000000000182999100000000000000009999123100000010000000000000BRBRAPACNOR5148
012024081402BRAP4       010BRADESPAR   PN      N1   R$  000000000180900000000018100000000001790000000000180200000000018060000000001805000000000180608732000000000003275700000000005904286000000000000000009999123100000010000000000000BRBRAPACNPR2148
012024081402DESK3       010DESKTOP     ON      NM   R$  000000000162400000000016510000000001609000000000163300000000016350000000001630000000000163500337000000000000151800000000000247947800000000000000009999123100000010000000000000BRDESKACNOR2104
012024081402DEXP3       010DEXXOS PAR  ON      N1   R$  000000000098600000000010050000000000962000000000098000000000009650000000000964000000000096500495000000000000104300000000000102245900000000000000009999123100000010000000000000BRDEXPACNOR1105
012024081402DEXP4       010DEXXOS PAR  PN      N1   R$  000000000094500000000009470000000000919000000000093100000000009190000000000915000000000091900091000000000000074700000000000069565500000000000000009999123100000010000000000000BRDEXPACNPR8105
012024081402DIRR3       010DIRECIONAL  ON      NM   R$  000000000289800000000029090000000002838000000000288100000000028990000000002891000000000290006130000000000001338500000000003857152600000000000000009999123100000010000000000000BRDIRRACNOR0118
012024081402DMVF3       010D1000VFARMA ON      NM   R$  000000000076400000000007700000000000732000000000075600000000007350000000000735000000000073900247000000000000046600000000000035244600000000000000009999123100000010000000000000BRDMVFACNOR9100
012024081402DOHL4       010DOHLER      PN           R$  000000000042000000000004220000000000410000000000041700000000004190000000000402000000000041900009000000000000003200000000000001337000000000000000009999123100000010000000000000BRDOHLACNPR9066
012024081402DOTZ3       010DOTZ SA     ON      NM   R$  000000000058700000000005870000000000530000000000055200000000005510000000000550000000000055900058000000000000013400000000000007396800000000000000009999123100000010000000000000BRDOTZACNOR7101
012024081402AMAR3       010LOJAS MARISAON      NM   R$  000000000013400000000001340000000000130000000000013100000000001300000000000129000000000013000527000000000000537500000000000070495200000000000000009999123100000010000000000000BRAMARACNOR4115
012024081402AMBP3       010AMBIPAR     ON      NM   R$  000000000750000000000078500000000006756000000000739400000000069950000000006995000000000699903877000000000001354700000000010016682600000000000000009999123100000010000000000000BRAMBPACNOR6103
012024081402ANIM3       010ANIMA       ON  ED  NM   R$  000000000033900000000003390000000000322000000000032900000000003270000000000327000000000032807312000000000010688300000000003522790400000000000000009999123100000010000000000000BRANIMACNOR6109
012024081402APER3       010ALPER S.A.  ON           R$  000000000463300000000046330000000004633000000000463300000000046330000000004629000000000463000001000000000000000100000000000000463300000000000000009999123100000010000000000000BRAPERACNOR9106
012024081402ARML3       010ARMAC       ON      NM   R$  000000000090900000000009130000000000881000000000089900000000009020000000000896000000000090202102000000000000447300000000000402450000000000000000009999123100000010000000000000BRARMLACNOR1112
012024081402EALT3       010ACO ALTONA  ON           R$  000000000140000000000014000000000001400000000000140000000000014000000000000507000000000143000008000000000000001100000000000001540000000000000000009999123100000010000000000000BREALTACNOR4138
012024081402EALT4       010ACO ALTONA  PN           R$  000000000138500000000014350000000001385000000000141600000000014140000000001400000000000141600061000000000000011800000000000016710500000000000000009999123100000010000000000000BREALTACNPR1138
012024081402ECOR3       010ECORODOVIAS ON      NM   R$  000000000079300000000008000000000000781000000000078900000000007820000000000782000000000078304362000000000002224700000000001756281100000000000000009999123100000010000000000000BRECORACNOR8120
012024081402ELMD3       010ELETROMIDIA ON      NM   R$  000000000183600000000019300000000001836000000000189600000000018800000000001853000000000188001638000000000000180900000000000343166200000000000000009999123100000010000000000000BRELMDACNOR3101
012024081402EMAE4       010EMAE        PN           R$  000000000419600000000041960000000004001000000000407500000000041000000000004080000000000411600025000000000000003200000000000013042600000000000000009999123100000010000000000000BREMAEACNPR1125
012024081402EMBR3       010EMBRAER     ON      NM   R$  000000000440300000000044460000000004390000000000441500000000043940000000004393000000000439626539000000000005613800000000024785414500000000000000009999123100000010000000000000BREMBRACNOR4191
012024081402ESPA3       010ESPACOLASER ON      NM   R$  000000000010100000000001030000000000101000000000010100000000001020000000000101000000000010200380000000000000350500000000000035531300000000000000009999123100000010000000000000BRESPAACNOR7103
012024081402DXCO3       010DEXCO       ON      NM   R$  000000000078200000000007870000000000765000000000077600000000007650000000000765000000000077007179000000000001885900000000001464793200000000000000009999123100000010000000000000BRDXCOACNOR8105
012024081402CRFB3       010CARREFOUR BRON      NM   R$  000000000096600000000009830000000000957000000000097000000000009770000000000977000000000097919113000000000006334900000000006150282700000000000000009999123100000010000000000000BRCRFBACNOR2116
012024081402CRPG5       010CRISTAL     PNA          R$  000000000293500000000029350000000002880000000000288300000000028800000000002880000000000294000007000000000000001500000000000004325500000000000000009999123100000010000000000000BRCRPGACNPA3119
012024081402CRPG6       010CRISTAL     PNB          R$  000000000290000000000029590000000002895000000000291200000000029590000000002901000000000296000004000000000000000800000000000002330200000000000000009999123100000010000000000000BRCRPGACNPB1119
012024081402CSAN3       010COSAN       ON      NM   R$  000000000135000000000013590000000001335000000000134900000000013510000000001351000000000135220927000000000009297100000000012543381400000000000000009999123100000010000000000000BRCSANACNOR6126
012024081402IFCM3       010INFRACOMM   ON      NM   R$  000000000003300000000000340000000000028000000000003000000000000290000000000028000000000002906499000000000048970600000000001504066500000000000000009999123100000010000000000000BRIFCMACNOR8101
012024081402IGTI11      010IGUATEMI S.AUNT     N1   R$  000000000231200000000023850000000002312000000000236300000000023530000000002352000000000236415113000000000003344000000000007904209700000000000000009999123100000010000000000000BRIGTICDAM16106
012024081402ODPV3       010ODONTOPREV  ON      NM   R$  000000000118200000000011860000000001157000000000116300000000011660000000001158000000000116705221000000000001204200000000001401493300000000000000009999123100000010000000000000BRODPVACNOR4202
012024081402OFSA3       010OUROFINO S/AON      NM   R$  000000000216400000000022370000000002163000000000220300000000022370000000002180000000000226800011000000000000001200000000000002644600000000000000009999123100000010000000000000BROFSAACNOR7118
012024081402ONCO3       010ONCOCLINICASON      NM   R$  000000000066600000000006660000000000600000000000062300000000006300000000000629000000000063032680000000000014718800000000009172165900000000000000009999123100000010000000000000BRONCOACNOR6101
012024081402PDGR3       010PDG REALT   ON      NM   R$  000000000002100000000000220000000000019000000000002000000000000190000000000019000000000002000412000000000003391900000000000069482800000000000000009999123100000010000000000000BRPDGRACNOR8119
012024081402PDTC3       010PADTEC      ON      NM   R$  000000000018400000000001840000000000181000000000018200000000001810000000000181000000000018300037000000000000015200000000000002773500000000000000009999123100000010000000000000BRPDTCACNOR3101
012024081402PEAB3       010PAR AL BAHIAON           R$  000000000430000000000043000000000004300000000000430000000000043000000000004108000000000480000002000000000000000300000000000001290000000000000000009999123100000010000000000000BRPEABACNOR3133
012024081402PETR3       010PETROBRAS   ON      N2   R$  000000000402100000000040980000000004021000000000406900000000040980000000004084000000000409828143000000000010860000000000044198113900000000000000009999123100000010000000000000BRPETRACNOR9205
012024081402PETR4       010PETROBRAS   PN      N2   R$  000000000371900000000038000000000003716000000000376900000000037760000000003776000000000377887732000000000037955500000000143058836100000000000000009999123100000010000000000000BRPETRACNPR6213
012024081402GGPS3       010GPS         ON      NM   R$  000000000176300000000017940000000001763000000000178500000000017850000000001776000000000178803278000000000001232200000000002200545600000000000000009999123100000010000000000000BRGGPSACNOR9103
012024081402GMAT3       010GRUPO MATEUSON      NM   R$  000000000078500000000008120000000000785000000000080500000000008060000000000805000000000080604057000000000002043600000000001645740700000000000000009999123100000010000000000000BRGMATACNOR7102
012024081402GOAU3       010GERDAU MET  ON  ED  N1   R$  000000000103400000000010340000000001023000000000102500000000010250000000001025000000000103900148000000000000103500000000000106130300000000000000009999123100000010000000000000BRGOAUACNOR1268
012024081402GOAU4       010GERDAU MET  PN  ED  N1   R$  000000000101200000000010140000000001004000000000100800000000010090000000001009000000000101012766000000000006836300000000006896754600000000000000009999123100000010000000000000BRGOAUACNPR8269
012024081402SCAR3       010SAO CARLOS  ON      NM   R$  000000000236000000000024400000000002341000000000236800000000023410000000002341000000000238000065000000000000030400000000000071994400000000000000009999123100000010000000000000BRSCARACNOR7131
012024081402SEER3       010SER EDUCA   ON      NM   R$  000000000055600000000005640000000000548000000000055300000000005510000000000550000000000055301866000000000000613800000000000339807400000000000000009999123100000010000000000000BRSEERACNOR5119
012024081402SEQL3       010SEQUOIA LOG ON      NM   R$  000000000076600000000009210000000000602000000000075900000000006100000000000609000000000061006691000000000004373100000000003323441500000000000000009999123100000010000000000000BRSEQLACNOR2103
012024081402BEEF3       010MINERVA     ON      NM   R$  000000000074100000000007690000000000735000000000075300000000007590000000000759000000000076011578000000000010888700000000008205321400000000000000009999123100000010000000000000BRBEEFACNOR6116
012024081402BPAC11      010BTGP BANCO  UNT     N2   R$  000000000356100000000035690000000003443000000000350400000000035000000000003499000000000350043778000000000022404000000000078521673200000000000000009999123100000010000000000000BRBPACUNT006119
012024081402BPAC3       010BTGP BANCO  ON      N2   R$  000000000165700000000016880000000001641000000000165200000000016410000000001641000000000165100063000000000000015700000000000025941800000000000000009999123100000010000000000000BRBPACACNOR7134
012024081402BPAC5       010BTGP BANCO  PNA     N2   R$  000000000092000000000009480000000000883000000000091500000000009280000000000902000000000092800035000000000000005000000000000004579600000000000000009999123100000010000000000000BRBPACACNPA0134
012024081402SHOW3       010TIME FOR FUNON      NM   R$  000000000013000000000001310000000000127000000000012700000000001290000000000128000000000012900322000000000000532500000000000068041300000000000000009999123100000010000000000000BRSHOWACNOR7105
012024081402SHUL4       010SCHULZ      PN           R$  000000000065000000000006660000000000650000000000065700000000006540000000000653000000000065401082000000000000292800000000000192532800000000000000009999123100000010000000000000BRSHULACNPR4156
012024081402SIMH3       010SIMPAR      ON      NM   R$  000000000067300000000006760000000000645000000000065700000000006540000000000653000000000065406985000000000003525400000000002318137200000000000000009999123100000010000000000000BRSIMHACNOR0107
012024081402SMFT3       010SMART FIT   ON      NM   R$  000000000230500000000023660000000002300000000000234500000000023350000000002335000000000235011945000000000003520900000000008257516700000000000000009999123100000010000000000000BRSMFTACNOR1112
012024081402SMTO3       010SAO MARTINHOON      NM   R$  000000000290400000000030210000000002904000000000298600000000029880000000002978000000000298907926000000000001422100000000004247280900000000000000009999123100000010000000000000BRSMTOACNOR3127
012024081402DASA3       010DASA        ON      NM   R$  000000000028800000000002920000000000276000000000028100000000002800000000000279000000000028004646000000000001008200000000000284035400000000000000009999123100000010000000000000BRDASAACNOR1122
012024081402AERI3       010AERIS       ON      NM   R$  000000000085000000000008920000000000797000000000084100000000008810000000000881000000000088201504000000000000841900000000000708156100000000000000009999123100000010000000000000BRAERIACNOR4102
012024081402AESB3       010AES BRASIL  ON      NM   R$  000000000114000000000011440000000001136000000000113900000000011400000000001139000000000114102240000000000002101600000000002394734100000000000000009999123100000010000000000000BRAESBACNOR7106
012024081402AGRO3       010BRASILAGRO  ON      NM   R$  000000000260500000000026350000000002595000000000261700000000026350000000002609000000000263501424000000000000231000000000000604610400000000000000009999123100000010000000000000BRAGROACNOR7114
012024081402AGXY3       010AGROGALAXY  ON      NM   R$  000000000015400000000001580000000000147000000000014900000000001480000000000147000000000014800348000000000000260000000000000038976400000000000000009999123100000010000000000000BRAGXYACNOR4103
012024081402BBSE3       010BBSEGURIDADEON      NM   R$  000000000370500000000037650000000003682000000000373700000000037450000000003745000000000374625003000000000005348200000000019988902800000000000000009999123100000010000000000000BRBBSEACNOR5124
012024081402BLAU3       010BLAU        ON      NM   R$  000000000120100000000012050000000001193000000000119900000000011930000000001193000000000120001108000000000000150500000000000180548600000000000000009999123100000010000000000000BRBLAUACNOR8114
012024081402BMEB3       010MERCANTIL   ON      N1   R$  000000000348000000000034800000000003480000000000348000000000034800000000003355000000000348000013000000000000001800000000000006264000000000000000009999123100000010000000000000BRBMEBACNOR8206
012024081402BMEB4       010MERCANTIL   PN      N1   R$  000000000360100000000037960000000003600000000000365600000000037110000000003711000000000372000097000000000000020400000000000074586700000000000000009999123100000010000000000000BRBMEBACNPR5211
012024081402BMGB4       010BANCO BMG   PN      N1   R$  000000000036500000000003700000000000361000000000036600000000003650000000000365000000000036701138000000000000683200000000000250137800000000000000009999123100000010000000000000BRBMGBACNPR0110
012024081402BMKS3       010BIC MONARK  ON           R$  000000003131100000000320000000000031300000000003172700000000313000000000031300000000003199000014000000000000000039000000000001237361000000000000009999123100000010000000000000BRBMKSACNOR9166
012024081402BMOB3       010BEMOBI TECH ON      NM   R$  000000000156500000000016170000000001564000000000159800000000016100000000001609000000000161101632000000000000252500000000000403715400000000000000009999123100000010000000000000BRBMOBACNOR7103
012024081402BNBR3       010NORD BRASIL ON           R$  000000001015000000000101500000000010150000000001015000000000101500000000009711000000001015000001000000000000000100000000000001015000000000000000009999123100000010000000000000BRBNBRACNOR8208
012024081402BOBR4       010BOMBRIL     PN           R$  000000000020200000000002040000000000198000000000020000000000001980000000000197000000000019900024000000000000016100000000000003221500000000000000009999123100000010000000000000BRBOBRACNPR3128
012024081402CMIN3       010CSNMINERACAOON      N2   R$  000000000051900000000005200000000000500000000000050800000000005000000000000500000000000050116366000000000016667600000000008482289000000000000000009999123100000010000000000000BRCMINACNOR2111
012024081402CPFE3       010CPFL ENERGIAON      NM   R$  000000000333100000000033920000000003321000000000337200000000033770000000003375000000000338008792000000000001599700000000005395334300000000000000009999123100000010000000000000BRCPFEACNOR0137
012024081402CPLE3       010COPEL       ON      N2   R$  000000000093600000000009580000000000936000000000094900000000009530000000000951000000000095305983000000000004821500000000004579617600000000000000009999123100000010000000000000BRCPLEACNOR8149
012024081402CPLE5       010COPEL       PNA     N2   R$  000000000122800000000012280000000001228000000000122800000000012280000000001210000000000129000001000000000000000100000000000000122800000000000000009999123100000010000000000000BRCPLEACNPA1147
012024081402CPLE6       010COPEL       PNB     N2   R$  000000000104000000000010610000000001040000000000105500000000010530000000001052000000000105321117000000000015728400000000016595793900000000000000009999123100000010000000000000BRCPLEACNPB9146
012024081402CXSE3       010CAIXA SEGURION      NM   R$  000000000142300000000014430000000001420000000000143700000000014410000000001441000000000144206869000000000001770700000000002544764900000000000000009999123100000010000000000000BRCXSEACNOR7107
012024081402CYRE3       010CYRELA REALTON      NM   R$  000000000213000000000021720000000002126000000000215600000000021630000000002163000000000217012057000000000003222700000000006950984400000000000000009999123100000010000000000000BRCYREACNOR7140
012024081402ENGI11      010ENERGISA    UNT ED  N2   R$  000000000467900000000048900000000004637000000000479200000000048320000000004830000000000483223353000000000005659500000000027121446400000000000000009999123100000010000000000000BRENGICDAM16136
012024081402ENGI3       010ENERGISA    ON  ED  N2   R$  000000000140300000000014860000000001402000000000144900000000014550000000001433000000000146300163000000000000019200000000000027832800000000000000009999123100000010000000000000BRENGIACNOR0146
012024081402ENGI4       010ENERGISA    PN  ED  N2   R$  000000000082000000000008530000000000811000000000083200000000008450000000000830000000000084400173000000000000057000000000000047479600000000000000009999123100000010000000000000BRENGIACNPR7142
012024081402ENJU3       010ENJOEI      ON      NM   R$  000000000017500000000001830000000000167000000000017500000000001800000000000180000000000018101551000000000002651800000000000464096300000000000000009999123100000010000000000000BRENJUACNOR9100
012024081402ENMT4       010ENERGISA MT PN           R$  000000000719900000000072000000000007199000000000719900000000072000000000005000000000000730000002000000000000000200000000000001439900000000000000009999123100000010000000000000BRENMTACNPR2126
012024081402EPAR3       010EMBPAR S/A  ON           R$  000000000058800000000005880000000000576000000000057900000000005760000000000583000000000058700046000000000000016300000000000009445200000000000000009999123100000010000000000000BREPARACNOR9105
012024081402EQMA3B      010EQTLMARANHAOON      MB   R$  000000000254000000000025490000000002540000000000254500000000025490000000002501000000000253900006000000000000001200000000000003054300000000000000009999123100000010000000000000BREQMAACNOR8108
012024081402EQPA3       010EQTL PARA   ON           R$  000000000068500000000006950000000000685000000000069000000000006950000000000695000000000069700018000000000000003500000000000002418100000000000000009999123100000010000000000000BREQPAACNOR1111
012024081402EQTL3       010EQUATORIAL  ON      NM   R$  000000000351500000000035900000000003467000000000355200000000035460000000003544000000000354629515000000000008293200000000029458008500000000000000009999123100000010000000000000BREQTLACNOR0130
012024081402SNSY3       010SANSUY      ON           R$  000000000121000000000012640000000001201000000000123100000000012640000000001211000000000126000005000000000000000700000000000000861900000000000000009999123100000010000000000000BRSNSYACNOR2113
012024081402SOJA3       010BOA SAFRA   ON      NM   R$  000000000133700000000013890000000001331000000000136900000000013870000000001376000000000138702501000000000000684400000000000937175000000000000000009999123100000010000000000000BRSOJAACNOR9105
012024081402SRNA3       010SERENA      ON      NM   R$  000000000090000000000009070000000000870000000000089600000000009040000000000902000000000090405297000000000002827900000000002535922100000000000000009999123100000010000000000000BRSRNAACNOR4100
012024081402STBP3       010SANTOS BRP  ON  EDJ NM   R$  000000000140500000000014270000000001379000000000140200000000014100000000001408000000000141012534000000000006196000000000008690547200000000000000009999123100000010000000000000BRSTBPACNOR3131
012024081402SUZB3       010SUZANO S.A. ON      NM   R$  000000000545100000000055000000000005436000000000546800000000054700000000005470000000000547425223000000000006591400000000036046095300000000000000009999123100000010000000000000BRSUZBACNOR0130
012024081402SYNE3       010SYN PROP TECON      NM   R$  000000000106100000000010630000000001044000000000105500000000010570000000001055000000000105700184000000000000063300000000000066807300000000000000009999123100000010000000000000BRSYNEACNOR2102
012024081402MDNE3       010MOURA DUBEUXON      NM   R$  000000000147600000000014820000000001431000000000145800000000014640000000001459000000000146701989000000000000491200000000000716415500000000000000009999123100000010000000000000BRMDNEACNOR9100
012024081402MEAL3       010IMC S/A     ON      NM   R$  000000000016800000000001720000000000158000000000016300000000001650000000000162000000000016501837000000000001131000000000000184380800000000000000009999123100000010000000000000BRMEALACNOR9105
012024081402MELK3       010MELNICK     ON      NM   R$  000000000036000000000003740000000000358000000000036200000000003600000000000358000000000036000534000000000000446000000000000161722400000000000000009999123100000010000000000000BRMELKACNOR8111
012024081402MGEL4       010MANGELS INDLPN           R$  000000000121000000000012290000000001200000000000121100000000012200000000001201000000000124700013000000000000004400000000000005331000000000000000009999123100000010000000000000BRMGELACNPR3147
012024081402MGLU3       010MAGAZ LUIZA ON      NM   R$  000000000131000000000013450000000001264000000000129700000000012740000000001272000000000127429245000000000025528600000000033121812000000000000000009999123100000010000000000000BRMGLUACNOR2124
012024081402MRVE3       010MRV         ON      NM   R$  000000000070400000000007390000000000701000000000072400000000007280000000000727000000000072921582000000000016982600000000012307273700000000000000009999123100000010000000000000BRMRVEACNOR2127
012024081402RANI3       010IRANI       ON  ED  NM   R$  000000000081000000000008160000000000806000000000080900000000008080000000000807000000000080803032000000000000928100000000000751556300000000000000009999123100000010000000000000BRRANIACNOR5073
012024081402RAPT3       010RANDON PART ON      N1   R$  000000000092400000000009240000000000902000000000091300000000009020000000000902000000000092100073000000000000010000000000000009136800000000000000009999123100000010000000000000BRRAPTACNOR7163
012024081402RAPT4       010RANDON PART PN      N1   R$  000000000110000000000011210000000001095000000000110700000000011060000000001103000000000110805175000000000001855100000000002054536000000000000000009999123100000010000000000000BRRAPTACNPR4163
012024081402RCSL3       010RECRUSUL    ON           R$  000000000029900000000003000000000000288000000000029100000000002910000000000291000000000029300497000000000000141100000000000041150400000000000000009999123100000010000000000000BRRCSLACNOR4134
012024081402RCSL4       010RECRUSUL    PN           R$  000000000008800000000000880000000000085000000000008500000000000850000000000084000000000008500396000000000000224800000000000019264900000000000000009999123100000010000000000000BRRCSLACNPR1134
012024081402RDNI3       010RNI         ON      NM   R$  000000000031400000000003250000000000313000000000031600000000003140000000000313000000000031400026000000000000005400000000000001710600000000000000009999123100000010000000000000BRRDNIACNOR9116
012024081402RDOR3       010REDE D OR   ON      NM   R$  000000000315000000000032510000000003045000000000311300000000030730000000003070000000000307755466000000000019975700000000062187857800000000000000009999123100000010000000000000BRRDORACNOR8113
012024081402SANB11      010SANTANDER BRUNT          R$  000000000293000000000030290000000002911000000000299800000000030040000000003004000000000301011577000000000002315600000000006942600100000000000000009999123100000010000000000000BRSANBCDAM13165
012024081402SANB3       010SANTANDER BRON           R$  000000000138500000000014370000000001385000000000141700000000014120000000001412000000000142501024000000000000165100000000000233959800000000000000009999123100000010000000000000BRSANBACNOR8172
012024081402SANB4       010SANTANDER BRPN           R$  000000000153100000000015900000000001531000000000157200000000015850000000001568000000000158500965000000000000167000000000000262665800000000000000009999123100000010000000000000BRSANBACNPR5172
012024081402SAPR11      010SANEPAR     UNT     N2   R$  000000000286400000000028840000000002837000000000286500000000028720000000002852000000000287204703000000000000912100000000002613879400000000000000009999123100000010000000000000BRSAPRCDAM13118
012024081402SAPR3       010SANEPAR     ON      N2   R$  000000000054000000000005460000000000535000000000053900000000005420000000000538000000000054200479000000000000232100000000000125128600000000000000009999123100000010000000000000BRSAPRACNOR9159
012024081402SAPR4       010SANEPAR     PN      N2   R$  000000000057700000000005830000000000574000000000057900000000005800000000000578000000000058002483000000000001135400000000000657564200000000000000009999123100000010000000000000BRSAPRACNPR6159
012024081402LUPA3       010LUPATECH    ON      NM   R$  000000000016500000000001690000000000161000000000016400000000001630000000000163000000000016500158000000000000083500000000000013756900000000000000009999123100000010000000000000BRLUPAACNOR8112
012024081402LVTC3       010WDC NETWORKSON      NM   R$  000000000039000000000004040000000000385000000000039400000000003850000000000384000000000039200053000000000000022900000000000009039800000000000000009999123100000010000000000000BRLVTCACNOR4102
012024081402LWSA3       010LWSA        ON      NM   R$  000000000049000000000004990000000000469000000000048200000000004770000000000475000000000047818373000000000015754400000000007606156700000000000000009999123100000010000000000000BRLWSAACNOR8103
012024081402MILS3       010MILLS       ON      NM   R$  000000000114900000000011800000000001139000000000116600000000011700000000001163000000000117005506000000000001218000000000001420490500000000000000009999123100000010000000000000BRMILSACNOR2127
012024081402MLAS3       010MULTILASER  ON      NM   R$  000000000020300000000002100000000000183000000000019000000000001830000000000182000000000018310025000000000024545400000000004680153400000000000000009999123100000010000000000000BRMLASACNOR9101
012024081402MNPR3       010MINUPAR     ON           R$  000000000163900000000016400000000001600000000000163600000000016400000000001576000000000164000009000000000000001700000000000002782000000000000000009999123100000010000000000000BRMNPRACNOR5122
012024081402MOVI3       010MOVIDA      ON      NM   R$  000000000073000000000007430000000000703000000000072800000000007370000000000734000000000073809212000000000006957300000000005069114500000000000000009999123100000010000000000000BRMOVIACNOR0122
012024081402MRFG3       010MARFRIG     ON      NM   R$  000000000125600000000013000000000001250000000000128300000000012830000000001283000000000128420078000000000007488300000000009612560300000000000000009999123100000010000000000000BRMRFGACNOR0116
012024081402PRIO3       010PETRORIO    ON      NM   R$  000000000492500000000049890000000004885000000000494600000000049600000000004960000000000496127971000000000008603200000000042556186900000000000000009999123100000010000000000000BRPRIOACNOR1107
012024081402RSUL4       010RIOSULENSE  PN           R$  000000000630000000000063600000000006300000000000634000000000063290000000006301000000000633000011000000000000001300000000000008242800000000000000009999123100000010000000000000BRRSULACNPR3114
012024081402SBFG3       010GRUPO SBF   ON      NM   R$  000000000165800000000016840000000001645000000000166000000000016680000000001660000000000166906802000000000001401000000000002326795000000000000000009999123100000010000000000000BRSBFGACNOR1103
012024081402SBSP3       010SABESP      ON      NM   R$  000000000976000000000099780000000009741000000000993200000000099460000000009944000000000994820400000000000004133600000000041058900500000000000000009999123100000010000000000000BRSBSPACNOR5161
012024081402VIVR3       010VIVER       ON      NM   R$  000000000026500000000002660000000000253000000000025900000000002530000000000253000000000025500174000000000000065100000000000016916500000000000000009999123100000010000000000000BRVIVRACNOR4123
012024081402VIVT3       010TELEF BRASILON           R$  000000000510100000000051960000000005090000000000517100000000051620000000005161000000000516215020000000000002243600000000011602419600000000000000009999123100000010000000000000BRVIVTACNOR0183
012024081402VLID3       010VALID       ON  EJ  NM   R$  000000000198600000000020860000000001986000000000205800000000020830000000002080000000000208303087000000000000655900000000001350041600000000000000009999123100000010000000000000BRVLIDACNOR5144
012024081402CIEL3       010CIELO       ON      NM   R$  000000000058000000000005830000000000580000000000058100000000005810000000000580000000000058205277000000000031345600000000018217843900000000000000009999123100000010000000000000BRCIELACNOR3157
012024081402CLSA3       010CLEARSALE   ON      NM   R$  000000000077400000000007760000000000689000000000072300000000006950000000000695000000000069607658000000000003957200000000002864591900000000000000009999123100000010000000000000BRCLSAACNOR0100
012024081402CLSC4       010CELESC      PN      N2   R$  000000000741100000000074660000000007403000000000749900000000074660000000007431000000000751000067000000000000035100000000000263220200000000000000009999123100000010000000000000BRCLSCACNPR3131
012024081402CMIG3       010CEMIG       ON      N1   R$  000000000129600000000013820000000001296000000000136100000000013790000000001370000000000138001749000000000000476800000000000649341200000000000000009999123100000010000000000000BRCMIGACNOR6242
012024081402CMIG4       010CEMIG       PN      N1   R$  000000000116100000000012070000000001157000000000119000000000011970000000001196000000000119734097000000000026039000000000031007520500000000000000009999123100000010000000000000BRCMIGACNPR3243
012024081402CSED3       010CRUZEIRO EDUON      NM   R$  000000000039800000000004030000000000387000000000039100000000003940000000000390000000000039401268000000000000829900000000000324899600000000000000009999123100000010000000000000BRCSEDACNOR9104
012024081402CSMG3       010COPASA      ON      NM   R$  000000000229600000000023320000000002290000000000231300000000023200000000002320000000000233305254000000000001110900000000002569898900000000000000009999123100000010000000000000BRCSMGACNOR5174
012024081402CSNA3       010SID NACIONALON           R$  000000000120500000000012130000000001170000000000118100000000011700000000001170000000000117115247000000000008769500000000010362405100000000000000009999123100000010000000000000BRCSNAACNOR6261
012024081402SLCE3       010SLC AGRICOLAON      NM   R$  000000000181900000000018330000000001805000000000181800000000018200000000001816000000000182107873000000000002579100000000004691131700000000000000009999123100000010000000000000BRSLCEACNOR2125
012024081402TPIS3       010TRIUNFO PARTON      NM   R$  000000000047100000000004750000000000430000000000044400000000004300000000000430000000000043600305000000000000066600000000000029578900000000000000009999123100000010000000000000BRTPISACNOR8118
012024081402TRAD3       010TC          ON      NM   R$  000000000037900000000003800000000000357000000000036300000000003700000000000364000000000037000144000000000000065400000000000023801200000000000000009999123100000010000000000000BRTRADACNOR3102
012024081402TRIS3       010TRISUL      ON      NM   R$  000000000048300000000004830000000000446000000000046100000000004710000000000471000000000047202206000000000001289800000000000595464500000000000000009999123100000010000000000000BRTRISACNOR4118
012024081402TRPL3       010TRAN PAULISTON      N1   R$  000000000320000000000032190000000003191000000000320000000000032000000000003195000000000321300025000000000000004400000000000014083000000000000000009999123100000010000000000000BRTRPLACNOR4185
012024081402TRPL4       010TRAN PAULISTPN      N1   R$  000000000245800000000024950000000002448000000000247200000000024710000000002470000000000247117592000000000004151900000000010265682800000000000000009999123100000010000000000000BRTRPLACNPR1185
012024081402TTEN3       0103TENTOS     ON      NM   R$  000000000115600000000011650000000001134000000000115000000000011560000000001153000000000115609211000000000001772700000000002039484800000000000000009999123100000010000000000000BRTTENACNOR0103
012024081402TUPY3       010TUPY        ON      NM   R$  000000000260000000000027360000000002515000000000267200000000026900000000002685000000000269006326000000000001187400000000003173228600000000000000009999123100000010000000000000BRTUPYACNOR1184
012024081402WEST3       010WESTWING    ON      NM   R$  000000000009200000000000940000000000092000000000009200000000000930000000000092000000000009300030000000000000023200000000000002151100000000000000009999123100000010000000000000BRWESTACNOR3100
012024081402BRIT3       010BRISANET    ON      NM   R$  000000000039900000000003990000000000389000000000039200000000003940000000000394000000000039501020000000000000607400000000000238500200000000000000009999123100000010000000000000BRBRITACNOR0103
012024081402BRKM3       010BRASKEM     ON      N1   R$  000000000174900000000017490000000001675000000000169400000000016870000000001686000000000171700091000000000000021800000000000036950400000000000000009999123100000010000000000000BRBRKMACNOR1119
012024081402BRKM5       010BRASKEM     PNA     N1   R$  000000000165600000000016700000000001639000000000165400000000016550000000001654000000000165806872000000000002140600000000003541980900000000000000009999123100000010000000000000BRBRKMACNPA4121
012024081402CSRN3       010COSERN      ON           R$  000000000160500000000016050000000001520000000000155900000000015460000000001545000000000159800049000000000000012300000000000019178100000000000000009999123100000010000000000000BRCSRNACNOR0194
012024081402CSUD3       010CSU DIGITAL ON      NM   R$  000000000185800000000019010000000001816000000000184200000000018850000000001885000000000190100352000000000000085000000000000156624400000000000000009999123100000010000000000000BRCSUDACNOR5110
012024081402CTKA4       010KARSTEN     PN           R$  000000000154600000000015460000000001546000000000154600000000015460000000001506000000000158100001000000000000000100000000000000154600000000000000009999123100000010000000000000BRCTKAACNPR7043
012024081402BRFS3       010BRF SA      ON      NM   R$  000000000235300000000023700000000002275000000000233000000000023510000000002347000000000235131940000000000011659700000000027170246700000000000000009999123100000010000000000000BRBRFSACNOR8122
012024081402CEBR3       010CEB         ON           R$  000000000198700000000019870000000001944000000000196200000000019450000000001870000000000196900021000000000000002500000000000004905300000000000000009999123100000010000000000000BRCEBRACNOR5125
012024081402CEBR5       010CEB         PNA          R$  000000000170000000000017000000000001629000000000165500000000016830000000001683000000000170000033000000000000006000000000000009930700000000000000009999123100000010000000000000BRCEBRACNPA8124
012024081402CEBR6       010CEB         PNB          R$  000000000177600000000018010000000001751000000000176400000000017510000000001751000000000177800051000000000000013300000000000023464400000000000000009999123100000010000000000000BRCEBRACNPB6124
012024081402CEDO4       010CEDRO       PN      N1   R$  000000000241100000000024110000000002300000000000235500000000023790000000002356000000000238000010000000000000004900000000000011540600000000000000009999123100000010000000000000BRCEDOACNPR5128
012024081402CEED3       010CEEE-D      ON           R$  000000000130000000000013000000000001300000000000130000000000013000000000001001000000000210000001000000000000000200000000000000260000000000000000009999123100000010000000000000BRCEEDACNOR9103
012024081402CGAS3       010COMGAS      ON  ED       R$  000000001158900000000115890000000010803000000001125000000000108030000000010981000000001210000004000000000000000400000000000004500100000000000000009999123100000010000000000000BRCGASACNOR0164
012024081402CGAS5       010COMGAS      PNA ED       R$  000000001162800000000116290000000011263000000001139100000000113590000000011365000000001147800027000000000000004600000000000052400600000000000000009999123100000010000000000000BRCGASACNPA3161
012024081402CGRA3       010GRAZZIOTIN  ON           R$  000000000249200000000024960000000002475000000000248200000000024800000000002476000000000250500033000000000000006900000000000017129700000000000000009999123100000010000000000000BRCGRAACNOR2083
012024081402CGRA4       010GRAZZIOTIN  PN           R$  000000000255000000000025790000000002521000000000256300000000025210000000002501000000000254400065000000000000007100000000000018199300000000000000009999123100000010000000000000BRCGRAACNPR9083
012024081402CURY3       010CURY S/A    ON      NM   R$  000000000239500000000023960000000002358000000000237300000000023630000000002363000000000236706653000000000001021200000000002424099300000000000000009999123100000010000000000000BRCURYACNOR3109
012024081402CVCB3       010CVC BRASIL  ON      NM   R$  000000000019400000000002000000000000190000000000019400000000001910000000000191000000000019209727000000000012842100000000002499590300000000000000009999123100000010000000000000BRCVCBACNOR1116
012024081402GEPA4       010GER PARANAP PN           R$  000000000264500000000026450000000002625000000000263900000000026440000000002606000000000264500004000000000000000400000000000001055900000000000000009999123100000010000000000000BRGEPAACNPR9160
012024081402GFSA3       010GAFISA      ON  ES  NM   R$  000000000030300000000003060000000000282000000000029100000000002880000000000287000000000028802571000000000003556800000000001038416700000000000000009999123100000010000000000000BRGFSAACNOR3125
012024081402GGBR3       010GERDAU      ON  ED  N1   R$  000000000157100000000015710000000001542000000000154800000000015480000000001543000000000154900267000000000000078300000000000121213900000000000000009999123100000010000000000000BRGGBRACNOR1193
012024081402GGBR4       010GERDAU      PN  ED  N1   R$  000000000174500000000017510000000001733000000000174000000000017400000000001740000000000174129476000000000009880600000000017197113000000000000000009999123100000010000000000000BRGGBRACNPR8193
012024081402AZZA3       010AZZAS 2154  ON      NM   R$  000000000549900000000055640000000005446000000000550500000000055160000000005515000000000551607708000000000002143600000000011800744200000000000000009999123100000010000000000000BRAZZAACNOR9100
012024081402BRBI11      010BR PARTNERS UNT ED  N2   R$  000000000151000000000015170000000001494000000000150800000000015000000000001500000000000151401427000000000000604000000000000910965900000000000000009999123100000010000000000000BRBRBICDAM10110
012024081402TGMA3       010TEGMA       ON  EDJ NM   R$  000000000253800000000025700000000002516000000000254400000000025560000000002539000000000255700843000000000000402800000000001025124400000000000000009999123100000010000000000000BRTGMAACNOR7145
012024081402TIMS3       010TIM         ON      NM   R$  000000000178500000000018230000000001784000000000181200000000018100000000001810000000000182016363000000000008165000000000014800474100000000000000009999123100000010000000000000BRTIMSACNOR5117
012024081402TOTS3       010TOTVS       ON  EJ  NM   R$  000000000292700000000029830000000002920000000000295600000000029660000000002965000000000296813427000000000002942100000000008698348200000000000000009999123100000010000000000000BRTOTSACNOR8145
012024081402ZAMP3       010ZAMP S.A.   ON           R$  000000000033900000000003410000000000331000000000033400000000003310000000000331000000000033302269000000000001412600000000000471898900000000000000009999123100000010000000000000BRZAMPACNOR5101
012024081402MTRE3       010MITRE REALTYON      NM   R$  000000000039300000000003960000000000387000000000039000000000003900000000000390000000000039101162000000000000631000000000000246717500000000000000009999123100000010000000000000BRMTREACNOR6113
012024081402MTSA4       010METISA      PN           R$  000000000420600000000044390000000004206000000000433100000000044390000000004100000000000444000017000000000000002600000000000011262600000000000000009999123100000010000000000000BRMTSAACNPR9072
012024081402MULT3       010MULTIPLAN   ON      N2   R$  000000000269900000000027450000000002673000000000271500000000027310000000002720000000000273118916000000000005404800000000014676263000000000000000009999123100000010000000000000BRMULTACNOR5139
012024081402OPCT3       010OCEANPACT   ON      NM   R$  000000000066000000000006670000000000647000000000066000000000006550000000000655000000000066302776000000000000974600000000000643430100000000000000009999123100000010000000000000BROPCTACNOR0100
012024081402ORVR3       010ORIZON      ON      NM   R$  000000000463300000000046390000000004550000000000460400000000046170000000004612000000000461802232000000000000348100000000001602961700000000000000009999123100000010000000000000BRORVRACNOR0101
012024081402KEPL3       010KEPLER WEBERON  EJ  NM   R$  000000000112400000000011490000000001124000000000113800000000011410000000001135000000000114102836000000000000623100000000000709634300000000000000009999123100000010000000000000BRKEPLACNOR1064
012024081402AALR3       010ALLIAR      ON      NM   R$  000000000105900000000010600000000001035000000000104000000000010440000000001032000000000104400106000000000000036600000000000038098500000000000000009999123100000010000000000000BRAALRACNOR6102
012024081402ABCB4       010ABC BRASIL  PN      N2   R$  000000000226300000000022970000000002238000000000226600000000022690000000002264000000000226905887000000000001408900000000003193803600000000000000009999123100000010000000000000BRABCBACNPR4146
012024081402ABEV3       010AMBEV S/A   ON           R$  000000000125700000000012690000000001254000000000126100000000012560000000001256000000000125726781000000000022128400000000027915747900000000000000009999123100000010000000000000BRABEVACNOR1128
012024081402B3SA3       010B3          ON      NM   R$  000000000126500000000012800000000001252000000000126800000000012700000000001270000000000127155155000000000044443400000000056393289400000000000000009999123100000010000000000000BRB3SAACNOR6133
012024081402BHIA3       010CASAS BAHIA ON      NM   R$  000000000051400000000005200000000000497000000000051000000000005100000000000507000000000051004309000000000005279400000000002693709500000000000000009999123100000010000000000000BRBHIAACNOR1102
012024081402BIOM3       010BIOMM       ON      MA   R$  000000000090000000000009300000000000858000000000089700000000008690000000000862000000000086900291000000000000094200000000000084572400000000000000009999123100000010000000000000BRBIOMACNOR2112
012024081402YDUQ3       010YDUQS PART  ON      NM   R$  000000000101600000000010200000000000996000000000100600000000010020000000001002000000000100409162000000000003876600000000003903525400000000000000009999123100000010000000000000BRYDUQACNOR3105
012024081402GRND3       010GRENDENE    ON      NM   R$  000000000062300000000006280000000000619000000000062300000000006240000000000619000000000062401794000000000000771700000000000481255900000000000000009999123100000010000000000000BRGRNDACNOR3174
012024081402GUAR3       010GUARARAPES  ON      NM   R$  000000000088800000000008970000000000859000000000087700000000008790000000000878000000000087905460000000000001282600000000001125577400000000000000009999123100000010000000000000BRGUARACNOR4173
012024081402HAGA3       010HAGA S/A    ON           R$  000000000023800000000002440000000000238000000000024000000000002390000000000239000000000024200015000000000000003700000000000000889500000000000000009999123100000010000000000000BRHAGAACNOR7103
012024081402HAGA4       010HAGA S/A    PN           R$  000000000011600000000001190000000000116000000000011600000000001170000000000116000000000011800015000000000000003700000000000000432300000000000000009999123100000010000000000000BRHAGAACNPR4103
012024081402HAPV3       010HAPVIDA     ON      NM   R$  000000000044200000000004500000000000437000000000044100000000004410000000000440000000000044138715000000000073019800000000032245748600000000000000009999123100000010000000000000BRHAPVACNOR4114
012024081402ITSA3       010ITAUSA      ON      N1   R$  000000000106300000000010930000000001062000000000108200000000010820000000001082000000000109200683000000000000202400000000000219165200000000000000009999123100000010000000000000BRITSAACNOR0441
012024081402ITSA4       010ITAUSA      PN      N1   R$  000000000106300000000010930000000001062000000000108400000000010860000000001086000000000108750490000000000032706800000000035457099000000000000000009999123100000010000000000000BRITSAACNPR7441
012024081402MYPK3       010IOCHP-MAXIONON      NM   R$  000000000114700000000011580000000001144000000000115200000000011510000000001151000000000115704047000000000000610300000000000703344600000000000000009999123100000010000000000000BRMYPKACNOR7155
012024081402VSTE3       010VESTE       ON      NM   R$  000000000136000000000013600000000001309000000000133200000000013090000000001308000000000134900025000000000000002900000000000003863400000000000000009999123100000010000000000000BRVSTEACNOR5103
012024081402VTRU3       010VITRUEDUCA  ON      NM   R$  000000000115300000000011560000000001099000000000110600000000010990000000001099000000000112000219000000000000096100000000000106325900000000000000009999123100000010000000000000BRVTRUACNOR3100
012024081402VULC3       010VULCABRAS   ON  ED  NM   R$  000000000179000000000018070000000001777000000000179500000000017870000000001786000000000178703419000000000000545000000000000978760000000000000000009999123100000010000000000000BRVULCACNOR2160
012024081402VVEO3       010VIVEO       ON      NM   R$  000000000021200000000002280000000000206000000000021700000000002280000000000227000000000022807592000000000007430700000000001614315300000000000000009999123100000010000000000000BRVVEOACNOR0104
012024081402IGTI3       010IGUATEMI S.AON      N1   R$  000000000029000000000002980000000000290000000000029300000000002960000000000296000000000029900092000000000000045300000000000013307700000000000000009999123100000010000000000000BRIGTIACNOR8106
012024081402JHSF3       010JHSF PART   ON      NM   R$  000000000041900000000004230000000000413000000000041900000000004220000000000421000000000042202211000000000002903800000000001217124300000000000000009999123100000010000000000000BRJHSFACNOR2138
012024081402BEES3       010BANESTES    ON           R$  000000000089400000000008990000000000893000000000089500000000008930000000000893000000000089800066000000000000010400000000000009313500000000000000009999123100000010000000000000BRBEESACNOR9394
012024081402BEES4       010BANESTES    PN           R$  000000000102900000000010290000000000980000000000099300000000009930000000000993000000000099600035000000000000006500000000000006455000000000000000009999123100000010000000000000BRBEESACNPR6319
012024081402WEGE3       010WEG         ON  ED  NM   R$  000000000511600000000051810000000005090000000000514800000000051540000000005153000000000516926951000000000007557200000000038906362400000000000000009999123100000010000000000000BRWEGEACNOR0224
012024081402PFRM3       010PROFARMA    ON      NM   R$  000000000059600000000006110000000000577000000000059200000000005770000000000575000000000057700429000000000000130400000000000077250400000000000000009999123100000010000000000000BRPFRMACNOR1116
012024081402PGMN3       010PAGUE MENOS ON      NM   R$  000000000029200000000003010000000000291000000000029600000000002940000000000294000000000029600759000000000000410100000000000121412200000000000000009999123100000010000000000000BRPGMNACNOR8103
012024081402PINE3       010PINE        ON      N2   R$  000000000056100000000005740000000000561000000000056600000000005700000000000561000000000059000005000000000000000600000000000000340000000000000000009999123100000010000000000000BRPINEACNOR1150
012024081402PINE4       010PINE        PN      N2   R$  000000000046600000000004810000000000463000000000047100000000004670000000000464000000000046700560000000000000452600000000000213361400000000000000009999123100000010000000000000BRPINEACNPR8150
012024081402PLAS3       010PLASCAR PARTON           R$  000000000055000000000005500000000000550000000000055000000000005500000000000510000000000056000002000000000000000300000000000000165000000000000000009999123100000010000000000000BRPLASACNOR2106
012024081402PLPL3       010PLANOEPLANO ON      NM   R$  000000000123000000000012540000000001210000000000122400000000012200000000001211000000000122102679000000000000701500000000000859202700000000000000009999123100000010000000000000BRPLPLACNOR5104
012024081402PNVL3       010DIMED       ON      NM   R$  000000000107000000000010910000000001066000000000108200000000010910000000001091000000000109201374000000000000584400000000000632456500000000000000009999123100000010000000000000BRPNVLACNOR9207
012024081402POMO3       010MARCOPOLO   ON      N2   R$  000000000055600000000005590000000000543000000000054700000000005480000000000543000000000054800666000000000000189100000000000103573600000000000000009999123100000010000000000000BRPOMOACNOR0098
012024081402POMO4       010MARCOPOLO   PN      N2   R$  000000000070700000000007160000000000690000000000069700000000006940000000000693000000000069411153000000000007303900000000005093719000000000000000009999123100000010000000000000BRPOMOACNPR7098
012024081402PORT3       010WILSON SONS ON      NM   R$  000000000167200000000016770000000001655000000000166800000000016720000000001661000000000167301197000000000000260600000000000434791400000000000000009999123100000010000000000000BRPORTACNOR8109
012024081402POSI3       010POSITIVO TECON      NM   R$  000000000073200000000007400000000000703000000000071600000000007180000000000718000000000071905182000000000002293200000000001642943400000000000000009999123100000010000000000000BRPOSIACNOR9116
012024081402RADL3       010RAIADROGASILON      NM   R$  000000000299000000000030400000000002952000000000299700000000030000000000002994000000000300027587000000000010893600000000032656779000000000000000009999123100000010000000000000BRRADLACNOR0157
012024081402RAIL3       010RUMO S.A.   ON      NM   R$  000000000228800000000023500000000002283000000000232200000000023380000000002336000000000233929029000000000013069200000000030350217200000000000000009999123100000010000000000000BRRAILACNOR9105
012024081402ROMI3       010ROMI        ON      NM   R$  000000000108700000000010990000000001082000000000109100000000010900000000001088000000000109500632000000000000120700000000000131788800000000000000009999123100000010000000000000BRROMIACNOR8195
012024081402RPAD6       010ALFA HOLDINGPNB          R$  000000000087300000000008730000000000873000000000087300000000008730000000000876000000000095000002000000000000000500000000000000436500000000000000009999123100000010000000000000BRRPADACNPB2198
012024081402RRRP3       0103R PETROLEUMON      NM   R$  000000000295900000000029840000000002938000000000296200000000029580000000002957000000000295917685000000000006071400000000017989467600000000000000009999123100000010000000000000BRRRRPACNOR5103
012024081402VALE3       010VALE        ON  EJ  NM   R$  000000000559600000000056090000000005548000000000558000000000056000000000005596000000000560070910000000000051693500000000288486201400000000000000009999123100000010000000000000BRVALEACNOR0211
012024081402VITT3       010VITTIA      ON      NM   R$  000000000060000000000006110000000000591000000000060000000000005990000000000599000000000060202646000000000000491500000000000295380400000000000000009999123100000010000000000000BRVITTACNOR4107
012024081402VIVA3       010VIVARA S.A. ON      NM   R$  000000000267900000000027500000000002654000000000270700000000027100000000002710000000000271319792000000000005239600000000014188794700000000000000009999123100000010000000000000BRVIVAACNOR0107
012024081402JALL3       010JALLESMACHADON      NM   R$  000000000068000000000006900000000000660000000000067300000000006790000000000679000000000068001854000000000000637800000000000429788900000000000000009999123100000010000000000000BRJALLACNOR0106
012024081402JBSS3       010JBS         ON      NM   R$  000000000370200000000037340000000003577000000000368200000000037340000000003726000000000373541743000000000022563300000000083091533100000000000000009999123100000010000000000000BRJBSSACNOR8121
012024081402RAIZ4       010RAIZEN      PN  ED  N2   R$  000000000033500000000003350000000000318000000000032300000000003250000000000325000000000032617381000000000030173100000000009774001400000000000000009999123100000010000000000000BRRAIZACNPR6111
012024081402USIM3       010USIMINAS    ON      N1   R$  000000000060900000000006120000000000593000000000059800000000005940000000000594000000000059801032000000000000419900000000000251471600000000000000009999123100000010000000000000BRUSIMACNOR3167
012024081402USIM5       010USIMINAS    PNA     N1   R$  000000000062300000000006270000000000608000000000061300000000006090000000000609000000000061014765000000000013279000000000008149323900000000000000009999123100000010000000000000BRUSIMACNPA6169
012024081402RECV3       010PETRORECSA  ON      NM   R$  000000000218100000000022190000000002176000000000219500000000021800000000002180000000000218208364000000000002020700000000004436387200000000000000009999123100000010000000000000BRRECVACNOR3107
012024081402REDE3       010REDE ENERGIAON           R$  000000000069800000000007010000000000693000000000069800000000007000000000000693000000000069900013000000000000002400000000000001675400000000000000009999123100000010000000000000BRREDEACNOR7128
012024081402RENT3       010LOCALIZA    ON      NM   R$  000000000412500000000042980000000003940000000000408300000000040000000000003999000000000400019994000000000083137200000000339471333700000000000000009999123100000010000000000000BRRENTACNOR4196
012024081402PCAR3       010P.ACUCAR-CBDON      NM   R$  000000000031200000000003240000000000305000000000031500000000003200000000000318000000000032012481000000000013020000000000004104331600000000000000009999123100000010000000000000BRPCARACNOR3167
012024081402VAMO3       010VAMOS       ON      NM   R$  000000000085000000000008560000000000817000000000083200000000008320000000000832000000000083516989000000000007383100000000006147905400000000000000009999123100000010000000000000BRVAMOACNOR7105
012024081402VBBR3       010VIBRA       ON      NM   R$  000000000251800000000025540000000002513000000000253600000000025240000000002524000000000252627337000000000006809900000000017275577500000000000000009999123100000010000000000000BRVBBRACNOR1108
012024081402FESA4       010FERBASA     PN      N1   R$  000000000080300000000008100000000000795000000000080300000000008080000000000804000000000080802161000000000000660900000000000530729600000000000000009999123100000010000000000000BRFESAACNPR5084
012024081402FHER3       010FER HERINGERON      NM   R$  000000000042900000000004360000000000427000000000042700000000004270000000000427000000000043300021000000000000023600000000000010086700000000000000009999123100000010000000000000BRFHERACNOR5103
012024081402FIQE3       010UNIFIQUE    ON      NM   R$  000000000038400000000003870000000000379000000000038200000000003790000000000379000000000038300417000000000000341200000000000130477900000000000000009999123100000010000000000000BRFIQEACNOR5107
012024081402FLRY3       010FLEURY      ON      NM   R$  000000000158500000000016030000000001574000000000158500000000015880000000001580000000000158915936000000000003317100000000005260823000000000000000009999123100000010000000000000BRFLRYACNOR5138
012024081402FRAS3       010FRAS-LE     ON      N1   R$  000000000184900000000018690000000001837000000000185200000000018480000000001848000000000185601458000000000000339500000000000628849700000000000000009999123100000010000000000000BRFRASACNOR0160
012024081402INEP3       010INEPAR      ON           R$  000000000019000000000002000000000000186000000000019300000000001930000000000193000000000019700098000000000000076400000000000014774100000000000000009999123100000010000000000000BRINEPACNOR1143
012024081402INEP4       010INEPAR      PN           R$  000000000019300000000001930000000000187000000000018900000000001880000000000188000000000019400013000000000000006000000000000001139600000000000000009999123100000010000000000000BRINEPACNPR8143
012024081402INTB3       010INTELBRAS   ON      NM   R$  000000000218300000000022070000000002153000000000217400000000021770000000002175000000000218203060000000000000823500000000001790770300000000000000009999123100000010000000000000BRINTBACNOR9112
012024081402IRBR3       010IRBBRASIL REON      NM   R$  000000000318000000000033000000000003143000000000322200000000032520000000003252000000000325907052000000000001653600000000005329469700000000000000009999123100000010000000000000BRIRBRACNOR4111
012024081402KRSA3       010KORA SAUDE  ON      NM   R$  000000000006700000000000670000000000059000000000006200000000000600000000000059000000000006000316000000000000645000000000000040322700000000000000009999123100000010000000000000BRKRSAACNOR0100
012024081402LAND3       010TERRASANTAPAON      NM   R$  000000000132100000000013580000000001300000000000133200000000013200000000001312000000000132000193000000000000040700000000000054247900000000000000009999123100000010000000000000BRLANDACNOR9103
012024081402LAVV3       010LAVVI       ON      NM   R$  000000000086200000000008900000000000860000000000088300000000008830000000000883000000000089102913000000000000764500000000000675216400000000000000009999123100000010000000000000BRLAVVACNOR4112
012024081402LEVE3       010METAL LEVE  ON      NM   R$  000000000335200000000034100000000003328000000000336700000000033690000000003367000000000337101695000000000000388000000000001306650500000000000000009999123100000010000000000000BRLEVEACNOR2197
012024081402LJQQ3       010QUERO-QUERO ON      NM   R$  000000000043500000000004520000000000415000000000042900000000004270000000000425000000000042810384000000000006337100000000002720927300000000000000009999123100000010000000000000BRLJQQACNOR5104
012024081402LOGG3       010LOG COM PROPON      NM   R$  000000000236800000000024230000000002344000000000238400000000024120000000002387000000000241602390000000000000603600000000001439293100000000000000009999123100000010000000000000BRLOGGACNOR7107
012024081402LOGN3       010LOG-IN      ON      NM   R$  000000000362100000000036210000000003554000000000359100000000035820000000003580000000000358200084000000000000013400000000000048124000000000000000009999123100000010000000000000BRLOGNACNOR3105
012024081402LPSB3       010LOPES BRASILON      NM   R$  000000000018000000000001830000000000175000000000017900000000001780000000000177000000000017900189000000000000173100000000000031090200000000000000009999123100000010000000000000BRLPSBACNOR0114
012024081402LREN3       010LOJAS RENNERON      NM   R$  000000000156900000000016190000000001567000000000160200000000016190000000001612000000000161939641000000000017298600000000027725133000000000000000009999123100000010000000000000BRLRENACNOR1221
012024081402MATD3       010MATER DEI   ON      NM   R$  000000000046100000000004620000000000440000000000044600000000004440000000000443000000000044601402000000000001024100000000000456834000000000000000009999123100000010000000000000BRMATDACNOR4104
012024081402MBLY3       010MOBLY       ON      NM   R$  000000000028000000000002870000000000271000000000027900000000002760000000000276000000000027700499000000000000394500000000000110422800000000000000009999123100000010000000000000BRMBLYACNOR5100
012024081402MDIA3       010M.DIASBRANCOON      NM   R$  000000000289300000000029520000000002880000000000291600000000028950000000002894000000000290103426000000000000737500000000002150864300000000000000009999123100000010000000000000BRMDIAACNOR7135
012024081402AVLL3       010ALPHAVILLE  ON      NM   R$  000000000041900000000004200000000000403000000000040900000000004200000000000403000000000042000021000000000000018800000000000007701700000000000000009999123100000010000000000000BRAVLLACNOR5103
012024081402AZEV3       010AZEVEDO     ON           R$  000000000015000000000001500000000000139000000000014200000000001410000000000140000000000014100553000000000000620700000000000088725800000000000000009999123100000010000000000000BRAZEVACNOR0121
012024081402AZEV4       010AZEVEDO     PN           R$  000000000014700000000001490000000000135000000000014000000000001400000000000139000000000014001488000000000003780100000000000532471300000000000000009999123100000010000000000000BRAZEVACNPR7121
012024081402AZUL4       010AZUL        PN      N2   R$  000000000073500000000007820000000000729000000000076100000000007750000000000774000000000077520418000000000032798800000000024981905300000000000000009999123100000010000000000000BRAZULACNPR4102
012024081402BBDC3       010BRADESCO    ON      N1   R$  000000000132900000000013540000000001327000000000134400000000013390000000001339000000000134216292000000000007560100000000010161644800000000000000009999123100000010000000000000BRBBDCACNOR1773
012024081402BBDC4       010BRADESCO    PN      N1   R$  000000000148500000000015120000000001485000000000150100000000015010000000001501000000000150253059000000000053268600000000079999826300000000000000009999123100000010000000000000BRBBDCACNPR8773
012024081402TAEE11      010TAESA       UNT     N2   R$  000000000354900000000035910000000003540000000000355800000000035430000000003543000000000354710145000000000002051100000000007298545000000000000000009999123100000010000000000000BRTAEECDAM10147
012024081402TAEE3       010TAESA       ON      N2   R$  000000000117300000000011880000000001171000000000117700000000011760000000001175000000000117600606000000000000119600000000000140884000000000000000009999123100000010000000000000BRTAEEACNOR9147
012024081402TAEE4       010TAESA       PN      N2   R$  000000000118800000000012010000000001185000000000119200000000011850000000001185000000000118700876000000000000299400000000000357058500000000000000009999123100000010000000000000BRTAEEACNPR6147
012024081402TASA3       010TAURUS ARMASON      N2   R$  000000000113600000000011420000000001105000000000111700000000011170000000001112000000000111900197000000000000045300000000000050610100000000000000009999123100000010000000000000BRTASAACNOR7104
012024081402TASA4       010TAURUS ARMASPN      N2   R$  000000000111700000000011320000000001099000000000111000000000011010000000001101000000000110201805000000000000523700000000000581348300000000000000009999123100000010000000000000BRTASAACNPR4104
012024081402TCSA3       010TECNISA     ON      NM   R$  000000000020500000000002110000000000205000000000020700000000002060000000000206000000000020900217000000000000095700000000000019888400000000000000009999123100000010000000000000BRTCSAACNOR3112
012024081402TECN3       010TECHNOS     ON      NM   R$  000000000058900000000006100000000000573000000000059700000000005880000000000588000000000059800477000000000000470600000000000281333300000000000000009999123100000010000000000000BRTECNACNOR6109
012024081402TELB3       010TELEBRAS    ON           R$  000000000139000000000013900000000001390000000000137700000000013900000000001332000000000136500002000000000000000200000000000000275500000000000000009999123100000010000000000000BRTELBACNOR2140
012024081402TELB4       010TELEBRAS    PN           R$  000000000094100000000009670000000000940000000000094900000000009460000000000946000000000095000027000000000000005300000000000005031600000000000000009999123100000010000000000000BRTELBACNPR9140
012024081402TEND3       010TENDA       ON      NM   R$  000000000131600000000013240000000001275000000000130600000000013190000000001310000000000132006208000000000003408500000000004453607600000000000000009999123100000010000000000000BRTENDACNOR4111
012024081402TFCO4       010TRACK FIELD PN      N2   R$  000000000123100000000012440000000001217000000000122700000000012250000000001220000000000122500506000000000000349700000000000429316700000000000000009999123100000010000000000000BRTFCOACNPR8114
012024081402NINJ3       010GETNINJAS   ON      NM   R$  000000000047200000000004800000000000464000000000046900000000004720000000000466000000000047600030000000000000006500000000000003050600000000000000009999123100000010000000000000BRNINJACNOR5101
012024081402NORD3       010NORDON MET  ON           R$  000000000081500000000011000000000000815000000000097100000000010370000000000900000000000107200042000000000000006000000000000005826100000000000000009999123100000010000000000000BRNORDACNOR7135
012024081402NTCO3       010GRUPO NATURAON      NM   R$  000000000149300000000015440000000001472000000000150300000000014750000000001475000000000147935721000000000015286600000000022986400600000000000000009999123100000010000000000000BRNTCOACNOR5106
012024081407TXRX4       010TEX RENAUX  PN           R$  000000000022900000000002290000000000229000000000022900000000002290000000000230000000000023700001000000000000000100000000000000022900000000000000009999123100000010000000000000BRTXRXACNPR0142
012024081407NUTR3       010NUTRIPLANT  ON      MA   R$  000000000051700000000005340000000000494000000000051700000000005260000000000506000000000052600106000000000000024400000000000012630100000000000000009999123100000010000000000000BRNUTRACNOR0104
012024081408NEXP3       010NEXPE       ON           R$  000000000041500000000004160000000000415000000000041500000000004160000000000404000000000041100003000000000000000400000000000000166300000000000000009999123100000010000000000000BRNEXPACNOR0101
012024081408ATMP3       010ATMASA      ON           R$  000000000016100000000001610000000000160000000000016000000000001600000000000160000000000016200003000000000000000300000000000000048200000000000000009999123100000010000000000000BRATMPACNOR8100
012024081408BDLL4       010BARDELLA    PN           R$  000000000096000000000009600000000000920000000000092300000000009200000000000870000000000092000004000000000000001100000000000001016000000000000000009999123100000010000000000000BRBDLLACNPR8151
012024081408AMER3       010AMERICANAS  ON      NM   R$  000000000003700000000000370000000000033000000000003500000000000330000000000033000000000003419508000000000267471600000000009393053000000000000000009999123100000010000000000000BRAMERACNOR6102
012024081408OIBR3       010OI          ON      N1   R$  000000000043200000000004360000000000426000000000043000000000004300000000000430000000000043100390000000000000291200000000000125500200000000000000009999123100000010000000000000BROIBRACNOR1111
012024081408OIBR4       010OI          PN      N1   R$  000000000120400000000012450000000001204000000000121700000000012140000000001215000000000122500014000000000000001400000000000001704000000000000000009999123100000010000000000000BROIBRACNPR8110
012024081408SGPS3       010SPRINGS     ON      NM   R$  000000000017500000000001750000000000175000000000017500000000001750000000000174000000000017500011000000000000010500000000000001837500000000000000009999123100000010000000000000BRSGPSACNOR4105
012024081408RSID3       010ROSSI RESID ON      NM   R$  000000000037500000000003790000000000361000000000036800000000003680000000000360000000000036800172000000000000033700000000000012428800000000000000009999123100000010000000000000BRRSIDACNOR8120
012024081408CTNM4       010COTEMINAS   PN           R$  000000000008800000000000880000000000088000000000008800000000000880000000000086000000000008800006000000000000002700000000000000237600000000000000009999123100000010000000000000BRCTNMACNPR6129
012024081408CTSA3       010SANTANENSE  ON           R$  000000000028500000000002880000000000285000000000028700000000002850000000000285000000000029500008000000000000002300000000000000661700000000000000009999123100000010000000000000BRCTSAACNOR3062
012024081408CTSA4       010SANTANENSE  PN           R$  000000000013800000000001460000000000135000000000014100000000001350000000000135000000000013900094000000000000065900000000000009301700000000000000009999123100000010000000000000BRCTSAACNPR0062
012024081408OSXB3       010OSX BRASIL  ON      NM   R$  000000000037300000000003730000000000372000000000037200000000003720000000000372000000000037900004000000000000000600000000000000223600000000000000009999123100000010000000000000BROSXBACNOR8109
012024081408JFEN3       010JOAO FORTES ON           R$  000000000002900000000000300000000000025000000000002600000000000250000000000025000000000002601081000000000004404600000000000116896000000000000000009999123100000010000000000000BRJFENACNOR0059
012024081408PMAM3       010PARANAPANEMAON      NM   R$  000000000021100000000002120000000000204000000000020700000000002060000000000206000000000020700295000000000000087100000000000018075700000000000000009999123100000010000000000000BRPMAMACNOR3039
012024081408RNEW11      010RENOVA      UNT     N2   R$  000000000026200000000002690000000000260000000000026500000000002690000000000269000000000027000024000000000000007000000000000001860900000000000000009999123100000010000000000000BRRNEWCDAM15110
012024081408RNEW3       010RENOVA      ON      N2   R$  000000000009000000000000900000000000085000000000008700000000000880000000000087000000000008800079000000000000047100000000000004108200000000000000009999123100000010000000000000BRRNEWACNOR8110
012024081408RNEW4       010RENOVA      PN      N2   R$  000000000008900000000000910000000000087000000000008900000000000890000000000089000000000009000155000000000000211500000000000018849500000000000000009999123100000010000000000000BRRNEWACNPR5110
012024081408RPMG3       010PET MANGUINHON           R$  000000000027600000000002850000000000264000000000027400000000002640000000000265000000000026900201000000000000031700000000000008696000000000000000009999123100000010000000000000BRRPMGACNOR9194
012024081408LIGT3       010LIGHT S/A   ON      NM   R$  000000000045900000000004880000000000459000000000047900000000004850000000000484000000000048503643000000000001101900000000000527991500000000000000009999123100000010000000000000BRLIGTACNOR2124
012024081410PDGR95      010PDG REALT   DIR     NM   R$  000000000000100000000000010000000000001000000000000100000000000010000000000000000000000000100055000000000000049456000000000000049456000000000000009999123100000010000000000000BRPDGRD03M17100
012024081410GFSA1       010GAFISA      DIR ORD NM   R$  000000000000300000000000040000000000002000000000000200000000000030000000000002000000000000300544000000000005001400000000000014138200000000000000009999123100000010000000000000BRGFSAD11OR7124
012024081410ZAMP1       010ZAMP S.A.   DIR ORD      R$  000000000000800000000000090000000000007000000000000700000000000070000000000007000000000000800227000000000000539800000000000003991700000000000000009999123100000010000000000000BRZAMPD01OR0100
012024081412BROF11      010FII BROF    CI           R$  000000000468000000000047500000000004680000000000471200000000047110000000004710000000000471100928000000000000007413000000000034932044000000000000009999123100000010000000000000BRBROFCTF000115
012024081412BTAL11      010FII BTG AGROCI           R$  000000000776400000000078030000000007750000000000778100000000078030000000007802000000000780300863000000000000005058000000000039357699000000000000009999123100000010000000000000BRBTALCTF003141
012024081412BTCI11      010FII BTG CRI CI  ER       R$  000000000097800000000009880000000000978000000000098200000000009870000000000986000000000098710327000000000000122958000000000120784996000000000000009999123100000010000000000000BRBTCICTF005122
012024081412BTHI11      010BTG HOTEL FICI  ER       R$  000000000389000000000041800000000003888000000000397300000000041800000000003892000000000417500519000000000000003014000000000011977603000000000000009999123100000010000000000000BRBTHICTF004111
012024081412BTLG11      010FII BTLG    CI           R$  000000001011000000000101990000000010102000000001016500000000101890000000010189000000001019007445000000000000073864000000000750861930000000000000009999123100000010000000000000BRBTLGCTF000164
012024081412BTRA11      010FII BTG TAGRCI           R$  000000000481200000000048570000000004805000000000481500000000048290000000004823000000000482900440000000000000004601000000000022155378000000000000009999123100000010000000000000BRBTRACTF000138
012024081412BTSG11      010FII BTSP I  CI           R$  000000001338400000000160000000000013384000000001359200000000160000000000000000000000001600000007000000000000000035000000000000475729000000000000009999123100000010000000000000BRBTSGCTF005133
012024081412NAVT11      010FII NAVI TOTCI  ER       R$  000000000859300000000085930000000008431000000000848400000000085690000000008532000000000856900119000000000000001023000000000008680109000000000000009999123100000010000000000000BRNAVTCTF015141
012024081412NCHB11      010FII NCH BR  CI  ER       R$  000000000092800000000009290000000000925000000000092700000000009290000000000928000000000092900251000000000000008157000000000007561631000000000000009999123100000010000000000000BRNCHBCTF000232
012024081412NCRI11      010FII NAVI CRICI  ER       R$  000000000086000000000008890000000000860000000000088500000000008690000000000869000000000088600026000000000000000108000000000000095638000000000000009999123100000010000000000000BRNCRICTF004120
012024081412NEWL11      010FII NEWPORT CI           R$  000000001151100000000115290000000011450000000001148600000000114500000000011450000000001150900172000000000000003267000000000037527420000000000000009999123100000010000000000000BRNEWLCTF004157
012024081412NEWU11      010FII NEWRU   CI           R$  000000000807000000000080700000000008070000000000806900000000080700000000008064000000000807400003000000000000000624000000000005035508000000000000009999123100000010000000000000BRNEWUCTF005123
012024081412CACR11      010CARTESIA FIICI           R$  000000001044800000000104490000000010390000000001041000000000104460000000010419000000001044602186000000000000019876000000000206914654000000000000009999123100000010000000000000BRCACRCTF004135
012024081412CARE11      010FII DEA CARECI           R$  000000000016500000000001650000000000161000000000016200000000001610000000000161000000000016200129000000000000003074000000000000498033000000000000009999123100000010000000000000BRCARECTF000112
012024081412CBOP11      010FII CBOP PAXCI           R$  000000000282500000000028470000000002806000000000282400000000028200000000002820000000000282500006000000000000000059000000000000166649000000000000009999123100000010000000000000BRCBOPCTF001232
012024081412CCME11      010FII CANUMA  CI  ER       R$  000000000105600000000010560000000001050000000000105000000000010530000000001052000000000105503688000000000000018795000000000019748390000000000000009999123100000010000000000000BRCCMECTF007125
012024081412CNES11      010FII CENESP  CI           R$  000000000015100000000001510000000000150000000000015000000000001510000000000150000000000015102233000000000000039186000000000005893532000000000000009999123100000010000000000000BRCNESCTF001261
012024081412CPLG11      010FII CPLG    CI           R$  000000000106000000000010600000000001060000000000106000000000010600000000000990000000000104700001000000000000000005000000000000005300000000000000009999123100000010000000000000BRCPLGCTF006100
012024081412CPSH11      010FII CPSH    CI           R$  000000000106900000000010690000000001053000000000105500000000010580000000001058000000000105903006000000000000093721000000000098952373000000000000009999123100000010000000000000BRCPSHCTF017115
012024081412CPTS11      010FII CAPI SECCI  ER       R$  000000000081200000000008150000000000811000000000081300000000008130000000000813000000000081424616000000000000656590000000000533975622000000000000009999123100000010000000000000BRCPTSCTF004233
012024081412IBCR11      010FII BREI    CI  ER       R$  000000000690000000000069450000000006892000000000690300000000069000000000006899000000000691900101000000000000001460000000000010079254000000000000009999123100000010000000000000BRIBCRCTF009139
012024081412PRSN11      010FII PERSONALCI           R$  000000000010900000000001090000000000103000000000010800000000001090000000000104000000000010800008000000000000000051000000000000005544000000000000009999123100000010000000000000BRPRSNCTF005125
012024081412PRSV11      010FII P VARGASCI           R$  000000000589100000000058910000000005891000000000589100000000058910000000005891000000000600000001000000000000000001000000000000005891000000000000009999123100000010000000000000BRPRSVCTF008226
012024081412PULV11      010FII PULV    CI           R$  000000000095000000000009840000000000931000000000095400000000009840000000000933000000000098200585000000000000005329000000000005087854000000000000009999123100000010000000000000BRPULVCTF007103
012024081412PVBI11      010FII VBI PRI CI           R$  000000000927500000000094000000000009260000000000935100000000093740000000009374000000000938006900000000000000031143000000000291226102000000000000009999123100000010000000000000BRPVBICTF003154
012024081412QAGR11      010FII QUASAR ACI           R$  000000000465600000000046600000000004633000000000465200000000046600000000004642000000000466000483000000000000007248000000000033724681000000000000009999123100000010000000000000BRQAGRCTF005157
012024081412TVRI11      010FII TIVIO RICI           R$  000000001016000000000102200000000010160000000001018300000000101820000000010164000000001018201187000000000000007999000000000081457313000000000000009999123100000010000000000000BRTVRICTF001110
012024081412AROA11      010FII AROA    CI           R$  000000000009800000000001000000000000098000000000009900000000000990000000000099000000000010000152000000000000004657000000000000462937000000000000009999123100000010000000000000BRAROACTF003120
012024081412ARRI11      010FII ATRIO   CI           R$  000000000090300000000009040000000000896000000000090000000000009040000000000898000000000090401137000000000000023624000000000021283681000000000000009999123100000010000000000000BRARRICTF009163
012024081412ARXD11      010FII ARXD R  CI           R$  000000000990000000000099700000000009835000000000990700000000099700000000009851000000000997000021000000000000001395000000000013820480000000000000009999123100000010000000000000BRARXDCTF008117
012024081412ASMT11      010FII ASA MET CI           R$  000000000370200000000037030000000003702000000000370200000000037020000000003702000000000385200009000000000000000063000000000000233230000000000000009999123100000010000000000000BRASMTCTF005107
012024081412ATSA11      010FII HATRIUM CI           R$  000000000553000000000056000000000005530000000000557800000000056000000000005525000000000560000004000000000000000020000000000000111577000000000000009999123100000010000000000000BRATSACTF000144
012024081412WHGR11      010FII WHG REALCI           R$  000000000096500000000009800000000000964000000000097300000000009700000000000969000000000097002610000000000000101318000000000098661480000000000000009999123100000010000000000000BRWHGRCTF008127
012024081412WPLZ11      010FII W PLAZA CI           R$  000000000602000000000060200000000005583000000000584300000000056010000000005750000000000601800025000000000000000191000000000001116078000000000000009999123100000010000000000000BRWPLZCTF004268
012024081412WSEC11      010FII WARREN  CI  ER       R$  000000000869500000000086950000000008500000000000869100000000086850000000008300000000000860000016000000000000000528000000000004589000000000000000009999123100000010000000000000BRWSECCTF010122
012024081412XPCI11      010FII XP CRED CI           R$  000000000863400000000086600000000008615000000000863400000000086450000000008620000000000864502025000000000000014085000000000121618016000000000000009999123100000010000000000000BRXPCICTF007159
012024081412XPCM11      010FII XP MACAECI           R$  000000000080500000000008400000000000802000000000083100000000008080000000000808000000000081000123000000000000002264000000000001881873000000000000009999123100000010000000000000BRXPCMCTF009230
012024081412HREC11      010FII HEDGERECCI           R$  000000000085900000000008650000000000855000000000085200000000008590000000000858000000000085905811000000000000193465000000000164992488000000000000009999123100000010000000000000BRHRECCTF005151
012024081412HSAF11      010FII HSI CRI CI           R$  000000000840000000000084000000000008342000000000837000000000083720000000008343000000000837200493000000000000004425000000000037038209000000000000009999123100000010000000000000BRHSAFCTF004150
012024081412HSLG11      010FII HSI LOG CI           R$  000000000852500000000086090000000008438000000000851600000000085320000000008509000000000853201441000000000000012202000000000103923842000000000000009999123100000010000000000000BRHSLGCTF009144
